:020000040800F2
:10000000080800206D020008AB270008A32600089E
:10001000A927000859140008152D00080000000049
:10002000000000000000000000000000B5280008EB
:100030005B14000800000000CD2700083D290008DF
:10004000870200088702000887020008870200086C
:10005000870200088702000887020008870200085C
:10006000870200088702000887020008870200084C
:10007000870200088702000887020008870200083C
:10008000870200088702000887020008870200082C
:10009000870200088702000887020008870200081C
:1000A000870200088702000887020008870200080C
:1000B00087020008870200088702000887020008FC
:1000C00087020008870200088702000887020008EC
:1000D00087020008A92C0008870200088702000890
:1000E00087020008870200088702000887020008CC
:1000F00087020008870200088702000887020008BC
:1001000087020008870200088702000887020008AB
:10011000870200088702000887020008870200089B
:10012000870200088702000887020008870200088B
:10013000870200088702000887020008870200087B
:10014000870200088702000887020008870200086B
:10015000870200088702000887020008870200085B
:10016000870200088702000887020008870200084B
:1001700087020008870200088702000800000000CC
:10018000870200088702000887020008870200082B
:10019000870200088702000887020008870200081B
:1001A00087020008870200088702000800F002F8B2
:1001B00000F04CF80AA090E8000C82448344AAF1B5
:1001C0000107DA4501D100F041F8AFF2090EBAE8B3
:1001D0000F0013F0010F18BFFB1A43F0010318477B
:1001E000D8300000F8300000103A24BF78C878C139
:1001F000FAD8520724BF30C830C144BF04680C602D
:10020000704700000023002400250026103A28BF74
:1002100078C1FBD8520728BF30C148BF0B60704778
:10022000662902F0F487642900F08280002070477C
:100230001FB502F0E2FF00F033FB040000200021B4
:1002400002F012FEE0601FBD10B510BD00F040FCD2
:100250001146FFF7EDFF02F0B3FD00F05EFC03B4C2
:10026000FFF7F2FF03BC02F06EFD00000948804773
:1002700009480047FEE7FEE7FEE7FEE7FEE7FEE788
:10028000FEE7FEE7FEE7FEE704480549054A064BA0
:100290007047000041290008AD0100080802002055
:1002A000080800200804002008040020704700000F
:1002B0000FB4044910B503AA029800F0DFFA10BC8D
:1002C0005DF814FB200000202DE9F0410E460446A5
:1002D000002020622046E168884730B3252805D0F9
:1002E000D4E901219047206A401CF2E7E1682046EA
:1002F00000278847050018D0A5F14100192802D829
:1003000020354FF400673246294620462760FFF724
:1003100087FF40B1012804D0F61D26F007060836F5
:10032000D8E7361DD6E72846DAE7206ABDE8F0812F
:100330002DE9F0410646002410687529314616A5BE
:1003400010D0AFF30080002802DA404213A507E086
:1003500031688A0701D512A502E0490704D511A525
:10036000012401E0AFF3008000210A2206F12407F6
:1003700009E0B0FBF2FCB0FBF2F302FB1C003030F2
:1003800078541846491C0028F3D123462A463046A3
:10039000BDE8F04100F00CB8000000002D000000A6
:1003A0002B00000020000000704770477047704726
:1003B0002DE9F0470D4699469246044600F124087F
:1003C0000168880604D5E06921F01001216000E091
:1003D0000120A84201DD471B00E00027A1697A192E
:1003E00002EB0900081AA0612078C00602D420465A
:1003F000AFF30080002608E0D4E901211AF80600D6
:100400009047206A401C761C20624E45F4DB207821
:10041000C0060AD52046AFF3008006E0D4E90121EA
:1004200030209047206A401C2062381EA7F1010747
:10043000F4DC07E0D4E9012118F805009047206AB0
:10044000401C2062281EA5F10105F3DC2046AFF315
:1004500000802078000602D50220BDE8F087012048
:10046000FBE770472DE9FF4F0C461E464FF0FF3764
:100470008BB0D2E90001DDF860800A908A46C1F3B2
:100480000A5505B93D46002108464FF00000BAF173
:10049000000F00F4400005DA00EB80004FF440014B
:1004A00001EA50004FEA9059B9F1010F00DDB94659
:1004B0000A9850EA4A000ED044F61050A5F2FF35D3
:1004C00045432F14B8F1000F1ED07542291E1EDDC2
:1004D000C9F100021CE0B8F1010F4FF0000001D09B
:1004E000302103E0F24305E02154401CB042FBDB25
:1004F00030460022002121540B99C1F80880C1E93F
:1005000000200FB0BDE8F08FBD1B6D1CDEE74A4632
:1005100000DA694206A800F065FA06AB93E8070026
:1005200003AB83E8070050460A9900F03FFB8DE8D3
:100530000700A0F500501F3800900398002D09DD3A
:1005400042F21F014A46084403A90390684600F09E
:100550009EFD08E0A0F500504A461F3803A903900D
:10056000684600F0A8FD8DE807000004000C03D0E9
:100570004FF0FF30410800E01046B8F1000F03D003
:100580000022009215461EE0751E05D400F08CF97D
:10059000303262556D1EF9D5B3460122084302D0B0
:1005A00000227F1C04E02078302801D100227F1E29
:1005B000002A099786D01DE0112D07DA00F074F9A2
:1005C000303262556D1C50EA0102F5D1084302D069
:1005D0000098C8B10EE00021681E05E0235C625C53
:1005E00063542254401E491C8142F7DBAB46A81BD2
:1005F000401E0990002004F80B000B98099AC0F8DF
:100600000880C0E9002B7CE711264FF0000859E76D
:100610002DE9F04F88460446D21D22F0070191B023
:10062000D1E90001CDE90A0102F075FB02460B9801
:10063000C00F01D02D2007E02068810701D52B20B5
:1006400002E0202101EAC000032A099001D0072A14
:1006500005DB03464146204600F084F90BE1207893
:10066000800601D5E06900E00620B8F1650F8146FB
:1006700006D0B8F1660F18D0B8F1670F70D131E02D
:100680000020B9F1110F009001DB112301E009F105
:1006900001030AAA01A90CA8FFF7E4FEDDE90C702A
:1006A000002609F10105834647E001204B460090F2
:1006B0004FF000470AAA01A90CA8FFF7D3FEDDE915
:1006C0000DB00C995D46002610B909F101000D1816
:1006D000B9EB050003D4C0F1FF3609F10105A5EB24
:1006E00009002BE0B9F1010F01DA4FF001090020F8
:1006F000B9F1110F0090484601DD112300E00346D7
:100700000AAA01A90CA8FFF7ADFEDDE90C704D4661
:1007100000268346207800070AD4AB4500DA5D4600
:1007200001A8012D04DD411911F8011C302907D061
:100730004F4502DA17F1040F04DA012082460FE078
:100740006D1EEEE7002F02DCED1B3E4403E0781C3B
:10075000A84200DD7D1CB81B00F1010A4FF00047E4
:100760002078000703D4AA4501DB4FF0FF3A0021AF
:10077000B7F1004F0DF143088DF8431024D002204B
:100780002B23002F01DA7F422D230A21021EA0F124
:10079000010000DC5FB197FBF1FC97FBF1F201FB7C
:1007A0001C7C17460CF1300C08F801CDEEE7A8F1DF
:1007B000010003702188090501D5452100E065216C
:1007C000A0F1010800F8011C09980FA9A1EB080786
:1007D000FF1D00B10120411901EBEA70A169384405
:1007E000081A401EA0612078C00602D42046AFF34C
:1007F0000080099828B1D4E901219047206A401C63
:1008000020622078C00622D52046AFF300801EE08B
:10081000002E04DBB34502DD01A8805D00E030203E
:10082000D4E901219047206A401C2062761CAAF17D
:1008300001005FEA000A0AD100F032F8C0680168DE
:10084000405CD4E901219047206A401C2062281EA8
:10085000A5F10105DCDC07E0D4E9012118F8010B62
:100860009047206A401C2062381EA7F10107F3DC84
:100870002046AFF30080032011B043E6074B70B56C
:100880000D467B4400F05BF80446284600F018F95A
:1008900010B14FF0FF3070BD204670BD272500001D
:1008A00000487047C401002030B5B0F10A024FEA99
:1008B000900E71F100034EEA817EB0EB0E0061EB09
:1008C00091014FEA101E4EEA017E10EB0E0041EB43
:1008D00011114FEA102E4EEA016E10EB0E0041EBA3
:1008E00011214FEA104E4EEA014E10EB0E0041EB83
:1008F0001141401841F100014FEAD00040EA417037
:100900004FEAD10110EB80054FEA810444EA90746C
:1009100044EB01046D1944EB0404521BA3414FF056
:10092000000348BF0A3200D530BD401C41F1000130
:1009300030BD000001694A1C02610878704700B5AB
:100940008FB0CDE901310021059105497944CDE908
:10095000031011466846FFF7B7FC0FB000BD00005A
:10096000E5FFFFFF2DE9F0411F460446032601681D
:10097000072A01F4006004DB08B116A505E016A5FE
:1009800003E008B115A500E015A521F010002060D6
:10099000A069C01EA0610FB1401EA0612046AFF348
:1009A00000804FB1D4E9012138469047206A401CAD
:1009B0002062C01C206206E0206AFAE7D4E9012127
:1009C00015F8010B9047761EF8D22046AFF3008051
:1009D000BDE8F0814E414E006E616E00494E46000A
:1009E000696E66002DE9F047814616468AB03348A5
:1009F00078440DC88DE80D0030487844801C03AC65
:100A00000DC884E80D0041F69B300844372190FB67
:100A1000F1F290FBF1F5A5F1800501FB12041B3CFE
:100A200002D56442012000E00020DFF890A080465B
:100A30000027FA44AAF1BE0A0DE0E00709D03246C9
:100A4000684607EB47010AEB810100F034FB8DE8B3
:100A5000070064107F1C002CEFD1184F7F44AC3F7F
:100A600018E0E80714D007EB04100DF1180A90E81D
:100A70000E008AE80E00C068F04201D19819089073
:100A8000324606A903A800F016FB03AB83E8070073
:100A90006D10641C002DE4D132466946B8F1000F98
:100AA00003A802D000F0F3FA01E000F004FBC9E96A
:100AB0000001C9F808200AB0BDE8F087AC280000A2
:100AC000007B00F08000704700487047A4010020C0
:100AD0007546FFF7F9FFAE4605006946534620F01C
:100AE0000700854618B020B5FFF7CEFBBDE82040D3
:100AF0004FF000064FF000074FF000084FF0000BDA
:100B000021F00701AC46ACE8C009ACE8C009ACE88C
:100B1000C009ACE8C0098D46704710B50446AFF374
:100B200000802046BDE81040FFF799BB4FF0013C24
:100B300050F8042B51F8043B9A4221D1A2EB0C034C
:100B4000934313EACC1317D150F8042B51F8043B0C
:100B50009A4215D1A2EB0C03934313EACC130BD1A9
:100B600050F8042B51F8043B9A4209D1A2EB0C0334
:100B7000934313EACC13DBD04FF00000704700BF63
:100B8000D01A01BAB1FA81F101F0180122FA01F08C
:100B9000CB40C1F12001DBB2C0B2C01A2CFA01F384
:100BA000D11A914311EAC311E6D170475FEA400CB4
:100BB00008BF91F0000F4FEA8C234FEAC12243EAAD
:100BC00051514FEA1C5018BF00F5F0404FEA300079
:100BD00018BF41F000415FEA6C5C00F02980BCF175
:100BE000FF3F08BF40F080407047130C06BF12045F
:100BF0004FF0100C4FF0000C130E04BF12020CF15A
:100C0000080C130F04BF12010CF1040C930F04BF66
:100C100092000CF1020CD30F04BF52000CF1010C36
:100C200011464FF00002A0F11F00A0EB0C0070472E
:100C300011F0004F08BF704731F000413FF4D5AFCD
:100C40000B0C06BF09044FF0100C4FF0000C0B0EFC
:100C500004BF09020CF1080C0B0F04BF09010CF1D1
:100C6000040C8B0F04BF89000CF1020CCB0F04BFE6
:100C700049000CF1010CCCF12003A0EB0C0022FA8E
:100C800003F302FA0CF241EA030100F1010070479C
:100C900020F07F4C80EA030023F07F47ACEB070392
:100CA00003F57C5300F0004003F1FF032DE9804978
:100CB0004FEA154B09B44FEA144325EA0B4E24EAD8
:100CC00003480FF2042606EB132749083E785FEA33
:100CD000320203FB0667C7F5000707FB06F64FEA7B
:100CE00054374FEAD64606F1020607FB066CCCF1F4
:100CF000005C4FEA1C472CEA074C07FB06F40CFB90
:100D000006F504EB15464FEA961634BF00204FF067
:100D100000404FEAD13706FB07FC4FEA1C4C0CFBA6
:100D20000BF7D21B03FB0CF761EB07010CFB0EF773
:100D3000B0EB074072EB17420CFB08F734BFA2EB95
:100D40000742B2EB074261EB17414FEA0C444FEA0E
:100D5000910706FB07FC4FEA1C4C0CFB0BF7B0EBB2
:100D6000C74072EB573203FB0CF734BFA2EBC7420C
:100D7000B2EBC74261EB57310CFB0EF7B0EBC7008B
:100D800072EB57720CFB08F734BFA2EBC702B2EB51
:100D9000C70261EB5771039F4FEA816141EA9211EB
:100DA00004EBCC044FEAD1374FEA826206FB07FC22
:100DB00042EA90124FEA80604FEA1C4C0CFB0BF7A2
:100DC000D21B03FB0CF761EB07010CFB0EF7B0EB3A
:100DD000074072EB17420CFB08F734BFA2EB074247
:100DE000B2EB074261EB17414FEA8C554FEA91078E
:100DF00004EB9C2406FB07FC4FEA1C4C0CFB0BF796
:100E0000B0EBC74072EB573203FB0CF734BFA2EBD9
:100E1000C742B2EBC74261EB57310CFB0EF7B0EBA8
:100E2000C70072EB57720CFB08F734BFA2EBC70286
:100E3000B2EBC70261EB577115EB4C254FEA8161AC
:100E400041EA92114FEA82624FEAD13742EA9012A8
:100E500006FB07FC44F100044FEA80604FEA1C4C9B
:100E60000CFB0BF7D21B03FB0CF761EB07010CFB30
:100E70000EF7B0EB074072EB17420CFB08F734BFDC
:100E8000A2EB0742B2EB074261EB174115EB1C15D1
:100E90004FEA813141EA92414FEA823242EA90427E
:100EA0004FEA80304FEA0C7644F1000448EA0343ED
:100EB0004EEA0B484FF0000EB2EB080C71EB030743
:100EC00024BF624639464EEB0E0E4FF0000B001861
:100ED000524149414BEB0B0BB2EB080C71EB030792
:100EE0007BF1000B24BF624639464EEB0E0E4FF0ED
:100EF000000B0018524149414BEB0B0BB2EB080CB5
:100F000071EB03077BF1000B24BF624639464EEBC1
:100F10000E0E51EA020718BF46F0010616EB0E76D8
:100F200055F1000254F1000103D5BDE88901BDE887
:100F30000088BDE88901BDE80048B619524141EB7F
:100F40000101A3F10103704780807F7E7D7C7B7A65
:100F50007978777676757473727171706F6E6E6D65
:100F60006C6C6B6A6A69686867666665646463630B
:100F700062616160605F5F5E5E5D5D5C5C5B5B5A91
:100F80005A595958585757565655555554545353FE
:100F900052525251515050504F4F4F4E4E4D4D4D59
:100FA0004C4C4C4B4B4B4A4A4A49494948484847A4
:100FB00047474746464645454544444444434343E2
:100FC0004342424242414141002B26D4770021D086
:100FD0001CB54FEA370703B44FF010004FF0100173
:100FE0004FF000000FBCBDE810400BF1010BBBF14E
:100FF000010F08BF5FEA170722BF12F1010211F1CA
:1010000001014FF0004143F1000300F0004043EACA
:1010100000007047F9D35708DAE746EA064613F1AD
:10102000400F4FEA16461FDD13F1200FDFBF1643B6
:101030000A46002120335B42C8D0C3F1200746EAAC
:10104000064602FA07F74FEA164646EA0706C3F1D4
:10105000200722FA03F201FA07F721FA03F14FF011
:10106000000342EA0702B1E746EA020646EA0646FC
:101070004FEA164646EA0106BCBF46EA0646360C6B
:101080004FF000034FF000024FF000019EE72DE902
:10109000C048934630B491E8380007C831EA400CA4
:1010A00048BF34EA430C03D5FFF7F2FDFFF78CFF8E
:1010B000F0BCBDE800882DE9C048934630B491E803
:1010C000380007C810F0804F08BF13F0804F03D1DD
:1010D00000F005F8FFF778FFF0BCBDE8008820F0CD
:1010E0007F4780EA030023F07F4C07EB0C03A3F556
:1010F0007C5300F00040A3F1FE0392F0000F00F0DB
:10110000B38095F0000F00F077802DE901494FEA98
:1011100011404FEA144621EA004800FB06FC24EA8D
:10112000064708FB06F607FB08F800FB07F718EB75
:1011300006484CEB164C4FEA124B18EB07484FEAA7
:1011400015464CEB174022EA0B4E0BFB06FC25EA3A
:1011500006470EFB06F607FB0EFE0BFB07F71EEB22
:10116000064E4CEB164C4FF000061EEB074E4CEBB8
:10117000174B18EB0B0840F1000018EB0E0B58EB67
:10118000000840F100008F1A4FF000013CBFC94336
:10119000661B14BFB5EB040C00213CBFC943F61B12
:1011A0004FEA17444EEA8E0E27EA04454FEA1C47E1
:1011B00004FB07622CEA074C05FB07F70CFB05F65E
:1011C00004FB0CFC16EB074642EB174216EB0C46F1
:1011D00042EB1C421BEB060658EB0202414146EA79
:1011E0009E0601D5BDE80189B619524141EB0101C6
:1011F000A3F10103BDE801894FEA14454FEA114705
:1012000024EA054621EA074C05FB07F406FB07F72D
:101210000CFB06F105FB0CFC11EB074144EB1744FA
:101220004FEA124711EB0C4144EB1C4422EA074CF5
:1012300005FB07F206FB07F70CFB06F605FB0CFCAB
:1012400016EB074642EB174216EB0C4642EB1C45E9
:101250006A1854F1000148BF7047B619524141EB7A
:101260000101A3F10103704795F0000F37D04FEA59
:1012700011424FEA144721EA024624EA074C02FBD6
:1012800007F106FB07F70CFB06F402FB0CFC14EB62
:10129000074441EB17414FEA154714EB0C4441EB6F
:1012A0001C4125EA074C02FB07F506FB07F70CFB80
:1012B00006F602FB0CFC16EB074645EB174516EB52
:1012C0000C4645EB1C42121951F1000148BF704712
:1012D000B619524141EB0101A3F1010370474FEAF6
:1012E00014454FEA114724EA054621EA074C05FB5D
:1012F00007F106FB07F70CFB06F24FF0000605FBB3
:101300000CFC12EB074241EB174112EB0C4251EB84
:101310001C4148BF7047921841EB0101A3F1010342
:10132000704700004A4910B5D1F8042322F4403236
:10133000C1F80423D1F8042343681A43C1F80423F5
:1013400001684A6822F480724A6001684A68036949
:1013500042EA03224A6001684A6822F040724A6009
:1013600001684A6883681A434A6001688A6822F4FF
:1013700000628A6001688A68C3681A438A60C16A29
:101380006FF07062D14201688A6822F070628A60F0
:1013900001688A680CD0C36A1A438A6001688A6847
:1013A00022F040528A6001688A68036B1A4301E0A8
:1013B00022F040528A6001688A6822F002028A6044
:1013C00001688A68836942EA43028A60416A0029A7
:1013D00001684A6815D042F400624A6001684A68B0
:1013E00022F460424A6001684B684FF46044826AAC
:1013F00094FAA4F4B4FA84F4521EA24013434B604E
:1014000002E022F400624A600168CA6A22F47002B3
:10141000CA620168CA6A038C0E4C04EB03531A4378
:10142000CA6201688A6822F400728A6001688A6868
:10143000C36942EA43228A6001688A6822F48062B2
:101440008A6001688A68406942EA8020886010BD2D
:10145000002001400000F0FFFEE7704730B5D1E901
:1014600001231A43D1E9033423431A434B690D681E
:101470001A438B691A43D1E90734012D496A05687B
:101480006FF30E0505D01A4322430A432A43026034
:1014900008E0234329430B43416803606FF30E01C7
:1014A0000A434260002030BD426942EA4101416185
:1014B00000207047F8B514460546D1E900021043F4
:1014C0008A686FF01F03C96803EB421242EA4121A8
:1014D00008430090286100F0E1FA064609E0601C2C
:1014E00007D024B100F0DAFA801BA04201D9032012
:1014F000F8BDA8698006F2D40020F8BDF0B56FF001
:101500000F05D1E9003405EB04145B1E2E012343C3
:101510008C682F0306EB04244FEA054C23430D8A05
:101520008E8ACC68097E4FF07F4E07EB05450CEBA9
:1015300006560EEB0161012A0CD082683F1107EBC1
:10154000043423432B43334302F070420B431343D1
:1015500083600FE0C2682B430B4302F07042816846
:10156000134301F070422103A1F58051314311432F
:10157000C36081600020F0BD1FB569460090012066
:1015800001900720029000200390084800F028F8FE
:10159000064800F04BF90A21044800F011F903480D
:1015A00000F0C8F804B080B210BD00006001002057
:1015B0002DE9F04100250E4607462C4608E0384646
:1015C000FFF7DAFF0544052001F0C8FB641CE4B214
:1015D000B442F4D3B5FBF6F080B2BDE8F081000070
:1015E00078B50024009490F83C20012A19D00122FB
:1015F00080F83C200A6807250368092A13D9DE68A9
:101600000A3A02EB42029540AE43DE600A788B68EC
:101610000A3A02EB420293400268D5682B43D3603A
:1016200010E0022078BD1E6902EB42029540AE43F5
:101630001E610A788B6802EB4202934002681569CA
:101640002B4313614A681F25072A13D203685E6B78
:10165000521E02EB82029540AE435E630A8893B24B
:101660000A79521E02EB820293400268556B2B43AB
:10167000536327E003680D2A12D21E6BD21F02EBC0
:1016800082029540AE431E630A8893B20A79D21F44
:1016900002EB820293400268156B2B43136311E047
:1016A000DE6A0D3A02EB82029540AE43DE620A88A2
:1016B00093B20A790D3A02EB820293400268D56A2E
:1016C0002B43D362174B02689A4208D10A68122A48
:1016D00005D1D3F8042342F48002C3F8042302683E
:1016E0009A421BD1104D0A68AA4201D0112A15D185
:1016F000D3F8042342F40002C3F804230968A94282
:101700000CD10A490A4A0968B1FBF2F101EB8101E7
:10171000490000E0491E00910029FBD180F83C40BF
:10172000002078BD002001401200001000000020C1
:1017300040420F000068C06C704770B5040004D0D0
:1017400094F83D00002510B106E0012070BD84F83A
:101750003C50204600F00EF8022084F83D00204660
:10176000FFF7E0FD2564012084F83D0084F83C503B
:10177000002070BD104800B5026887B0002142F417
:1017800000720260006800F4007005900A48143886
:10179000026842F001020260006800F0010005905A
:1017A000102000900320CDE901016946034800F0B4
:1017B00081F807B000BD000044380240000002403C
:1017C0002DE9F041044600680D4681684FF000079E
:1017D00049050AD58068C00507D5042084F83D0076
:1017E00084F83C700120BDE8F08100F057F906460E
:1017F0000DE0681C0BD025B100F050F9801BA84209
:1018000005D9032084F83D0084F83C70EBE720689C
:1018100000688007EDD594F83D00252804D01520F8
:1018200084F83D000020DEE73520F9E708B5002206
:10183000009290F83C1001290ED0012180F83C1054
:1018400090F83D10222909D0122180F83D1001683E
:101850008B68DB0704D013E0022008BD3221F4E7D7
:101860008B6843F001038B600F49104B0968B1FB93
:10187000F3F101EB410100E0491E00910029FBD189
:101880000B4980F83C20D1F804230068D20601D02F
:10189000884207D1816811F0405F03D1816841F02F
:1018A00080418160002008BD0000002040420F0000
:1018B000002001402DE9F84FDFF8A091002209F146
:1018C000040A0AF1040B4FF00F080BF1040E012675
:1018D0000B6896403340B34271D14C68022C01D062
:1018E000122C11D1D40800EB84073D6A5407E40E92
:1018F00008FA04FC25EA0C05D1F810C00CFA04FC27
:101900004CEA050CC7F820C007685400032591F87D
:1019100004C0A5400CF0030CAF430CFA04FC4CEAE5
:10192000070CC0F800C04F68012F05D0022F03D06C
:10193000112F01D0122F11D18768D1F80CC0AF43FD
:101940000CFA04FC4CEA070CC0F808C04768B7431F
:101950000E79C6F3001696403E434660C668AE4315
:101960008D68A5403543C5604C68E4006FD53C4C9C
:10197000256845F480452560246822F0030504F4B9
:1019800080440094374C2E19D6F808789407250F18
:1019900008FA05F4A743344CA04201D100242EE0FC
:1019A000324CA04201D1012429E0314CA04201D1A6
:1019B000022424E02F4CA04202D103241FE046E081
:1019C0002D4CA04201D1042419E02C4CA04201D19D
:1019D000052414E02A4CA04201D106240FE0294C32
:1019E000A04201D107240AE0274CA04201D10824DB
:1019F00005E0264CA04201D1092400E00A24AC40B5
:101A00003C43C6F80848D9F800404D464E689C4310
:101A1000F60300D51C432C60DAF8004055464E68AA
:101A20009C43B60300D51C432C60DBF800405D46A8
:101A30004E689C43F60200D51C432C60DEF8004043
:101A400075464E689C43B60200D51C432C60521C60
:101A5000102AFFF43CAFBDE8F88F0000003C0140C5
:101A600044380240003001400000024000040240BF
:101A700000080240000C0240001002400014024026
:101A800000180240001C02400020024000240240D6
:101A90000AB1816170470904FBE700000148006852
:101AA000704700001400002002480168491C0160D2
:101AB00070470000140000200B4810B5016841F485
:101AC00000710160016841F480610160016841F4C6
:101AD00080710160052000F049F80F2000F006F841
:101AE00000F015F8002010BD003C024010B504467F
:101AF00000F096F94FF47A71B0FBF1F000F062FC5F
:101B000000222146501E00F011F8002010BD08B53B
:101B10000020009008BD00F01F0201219140400903
:101B2000800000F1E020C0F800117047F0B40E4BC7
:101B30001B68C3F30223C3F10704042C00D9042457
:101B40001D1D072D01D2002300E0DB1E012606FA31
:101B500004F56D1E0D409D409E40761E164045EAE0
:101B60000601F0BC00F022BE0CED00E0064A00F0D9
:101B7000070110684FF6FF03184040EA01200349AF
:101B800008431060704700000CED00E00000FA050B
:101B90002DE9F8431D48016841F08051016000685B
:101BA000012700F080500090380490FAA0F0DFF890
:101BB0006080B0FA80F048F82070FFF76FFF0446AD
:101BC0004FF47A75134E04E0FFF768FF001BA8423C
:101BD00013D87068C003F7D54FF4003090FAA0F026
:101BE000B0FA80F048F82070FFF758FF044607E08D
:101BF000FFF754FF001BA84202D90320BDE8F88379
:101C000070688003F4D50020F8E7000040380240F7
:101C100000000E42007000402DE9F05FDFF8F8A1EF
:101C200004460F46DAF80000DFF8F08100F00F02FA
:101C3000C8B27A49814641F2883608F10808BA42AA
:101C400061D202468AF80020DAF8000000F00F00A6
:101C5000B8427DD12078800707D5D8F80020A36846
:101C600022F0F0021A43C8F800202078C0072DD0D7
:101C7000606801281AD002281BD0032819D00968EF
:101C80008907002964DAD8F80010474621F00301DB
:101C90000143C8F80010FFF701FF054660680128FE
:101CA0000FD0022818D003281CD027E00968890328
:101CB000E7E709688901E4E7FFF7F0FE401BB0425F
:101CC00058D83868C0F381000128F5D188E0FFF7C3
:101CD000E5FE401BB0424DD83868C0F381000228B1
:101CE000F5D17DE03868FFF7D9FE401BB042F9D945
:101CF00040E0FFF7D3FE401BB0423BD8386810F0FD
:101D00000C0FF6D16CE02078800707D5D8F80020BA
:101D1000A36822F0F0021A43C8F800202078C00718
:101D20004CD06068012828D0022829D0032827D069
:101D300009688907002949DAD8F8002022F003024F
:101D40000243C8F80020FFF7A9FE0546606800E0DE
:101D50003CE001281DD0022829D0032838D0B34602
:101D60004646306810F00C0F28D0FFF797FE411B55
:101D70005945F6D90320BDE8F09F09688903D9E7E2
:101D800009688901D6E7FFF789FE411B594502D949
:101D9000F0E7B34646463068C0F381000128F2D12F
:101DA0000CE0FFF77BFE411B594502D9E2E7B34641
:101DB00046463068C0F381000228F2D18AF80090CC
:101DC000DAF8000000F00F00B84209D00120D2E795
:101DD00044462068FFF762FE401BB042F9D9C9E7CC
:101DE0002078400707D5D8F80010E26821F4E051C8
:101DF0001143C8F800102078000708D5D8F8001063
:101E0000226921F4604141EAC201C8F800100F20A4
:101E1000FFF76CFE0020AEE7003C024000380240B5
:101E200010B500F043F808490968F02292FAA2F2CE
:101E300001F0F001B2FA82F2D140044A515CC8408C
:101E40000349086010BD0000083802401232000843
:101E50000000002010B5FFF7E3FF074909684FF4C1
:101E6000E05292FAA2F201F4E051B2FA82F2D140C9
:101E7000024A515CC84010BD0838024012320008C6
:101E800010B5FFF7CDFF074909684FF4604292FA99
:101E9000A2F201F46041B2FA82F2D140024A515CEE
:101EA000C84010BD083802401232000830B5194849
:101EB000006810F00C01184812D0184C04290ED0FC
:101EC00008290DD1134A121F1168136801F03F0150
:101ED0005D0247F6C07304D5B4FBF1F003E0204681
:101EE00030BDB0FBF1F01168194093FAA3F3B3FAD7
:101EF00083F3D940484311684FF4403292FAA2F27A
:101F000001F44031B2FA82F2D140491C4900B0FBE1
:101F1000F1F030BD083802400024F40040787D0123
:101F20002DE9F84F04460078DFF8FCA2BF4DC0074A
:101F30004FF0000648D0DAF800105046C1F3810196
:101F4000012908D00068C0F3810002280AD1281DA9
:101F50000068400206D52868800335D560680028EF
:101F600073D031E0DFF8C49209F1020989F800600A
:101F7000FFF794FD074641F2883804E0FFF78EFD35
:101F8000C11B41457AD828688003F7D4207989F8A5
:101F90000000606860B1FFF781FD074604E0FFF7CD
:101FA0007DFDC11B4145EDD828688003F7D50BE0C6
:101FB000FFF774FD074604E0FFF770FDC11B4145C4
:101FC000E0D828688003F7D42078DFF8649280078F
:101FD00044D5DAF80010504611F00C0F4FF0F80815
:101FE00009D00068C0F3810002280BD18E48001F81
:101FF0000068400206D42868800714D5E0680128EC
:1020000023D110E0E068D0B10120C9F80000FFF74B
:1020100045FD074604E0FFF741FDC01B6428B1D829
:1020200028688007F7D5286898FAA8F22169B2FADB
:1020300082F220F0F8009140084328600EE0C9F8D1
:102040000060FFF72BFD074605E0EAE0FFF726FDFD
:10205000C01B642812D828688007F7D420780007AE
:1020600025D5DFF8C4817348616908F16C0881B136
:1020700001210160FFF712FD074605E07EE0FFF752
:102080000DFDC01B642879D8D8F800008007F6D56C
:102090000DE00660FFF702FD074604E0FFF7FEFCD7
:1020A000C01B64286AD8D8F800008007F6D42078CE
:1020B000400753D55C483830016841F080510160D9
:1020C0000068DFF8748100F080500090D8F80010AC
:1020D00041F48071C8F80010FFF7E0FC074604E007
:1020E000FFF7DCFCC01B642848D8D8F80000C00506
:1020F000F6D5DFF834B10BF1680B8BF80060FFF711
:10210000CDFC074641F2883804E0FFF7C7FCC11B4D
:1021100041457ED8DBF800008007F6D4207A8BF8A2
:102120000000A06868B1FFF7B9FC074604E0FFF7BC
:10213000B5FCC11B41456CD8DBF800008007F6D523
:102140000CE0FFF7ABFC074604E0FFF7A7FCC11B60
:1021500041455ED8DBF800008007F6D4A069E8B3FB
:10216000DAF80010C1F3810102295AD0022806D002
:10217000C9F86060FFF792FC04464DE049E04F4625
:10218000C9F86060FFF78AFC064604E0FFF786FCAA
:10219000801B64283DD828688001F7D4D4E9070162
:1021A000084347F6C07191FAA1F1626AB1FA81F170
:1021B0008A40A16A4FF0FF3303EB51014FF44033E3
:1021C00093FAA3F3B3FA83F399400A4310434FF011
:1021D000706292FAA2F2B2FA82F200E01FE0E16AC3
:1021E000914008431049091F086001203866FFF735
:1021F00055FC044604E0FFF751FC001B642808D896
:1022000028688001F7D50AE0FFF748FC001B642826
:1022100002D90320BDE8F88F28688001F4D400209B
:10222000F8E70120F6E700000838024000380240D5
:1022300000004742800E47420070004070B50D46D6
:10224000040003D094F82C0010B107E0012070BD09
:10225000002084F82D00204600F012F8022084F8B7
:102260002C00211D2068FFF7F9F8D4E90002294667
:10227000FFF744F9012084F82C00002070BD000015
:10228000304800B5016887B041F001010160006885
:1022900000F0010005902B480838016841F0040166
:1022A0000160016801F004010591016841F0080135
:1022B0000160016801F008010591016841F0100119
:1022C0000160016801F010010591016841F02001F1
:1022D0000160016801F020010591016841F04001B1
:1022E00001600068694600F0400005900D200090F4
:1022F0000220019001200290032003900C20049002
:102300001148FFF7D7FA4CF20370009069460F4866
:10231000FFF7D0FA4FF68370009069460C48FFF73C
:10232000C9FA4FF63F00009069460A48FFF7C2FA23
:1023300048F23710009069460748FFF7BBFA07B02C
:1023400000BD00003838024000080240000C024086
:1023500000100240001402400018024010B504466C
:1023600090F82C00022809D0022084F82C00206864
:10237000FFF79AF8012084F82C00002010BD70B5FA
:10238000044690F82C000D4602280CD0022084F858
:102390002C002068FFF78EF82868022804D001205E
:1023A00084F82C00002070BD0520F9E74FF0E021F3
:1023B0000428086903D020F004000861704740F049
:1023C0000400FAE710B5401EB0F1807F01D3012070
:1023D00010BD4FF0E02460610F21601700F0E6F9B6
:1023E0000020A06107202061002010BD704738B593
:1023F000016804460868CA68C0F3000002F48072ED
:1024000038B132B1086848680090E06B40F00100D4
:10241000E06308684A69C0F3400002F0010238B185
:1024200032B1086848680090E06B40F00400E06357
:1024300008684A69C0F3800002F0010238B132B185
:10244000086848680090E06B40F00200E0630868AC
:102450004A69C0F3C00002F0010238B132B1086825
:1024600048680090E06B40F00800E0630868C968C5
:10247000C0F3401001F0200118B111B1204600F066
:1024800089FA20680168C068C1F3C01100F08000BB
:1024900019B110B1204600F08BFB21680868CA68AA
:1024A000C0F3801002F04002012568B162B1CA6831
:1024B000204622F04002CA6094F8391032290CD02C
:1024C00080F8395000F0ECF8E06B002804D084F874
:1024D00039502046FFF78AFF38BD222180F8391095
:1024E000F0E770B5040004D094F83900002510B16D
:1024F00006E0012070BD84F83850204600F020F836
:10250000022084F839002068C16821F40051C160BC
:10251000204600F093FA2068016921F4904101619E
:102520002068416921F02A0141612068C16841F4B5
:102530000051C160E563012084F83900002070BDBE
:1025400030B504460068204987B0884239D11F4819
:10255000016841F001010160006800F00100059090
:102560001A481430016841F010010160006801212F
:1025700000F0100005904FF4007000900220CDE9AB
:10258000010103900720124D049069462846FFF789
:1025900091F92815009069462846FFF78BF92068C5
:1025A000C16821F04001C1602068C16841F020018C
:1025B000C1602520FFF7AFFA032211462520FFF75F
:1025C000B5FA07B030BD00000010014030380240BD
:1025D000000002402DE9F047044690F83900994682
:1025E0000D46012801D0122857D125B31AB394F80B
:1025F0003800012851D0012684F838600027E763AD
:1026000094F83900122819D0222084F83900A285C4
:10261000E2854FF48058E08D4B46401EE085A0686F
:102620004FF0000240454FF02001204616D100F047
:10263000F2FAB0B904E00120BDE8F0873220E4E707
:10264000206900282068406803D0C1B225F8011B2A
:1026500012E0C0F3080125F8021B0DE000F0DBFAE0
:1026600008B10320E8E7206900282068406801D00D
:1026700000F07F0005F8010BE08D0028CBD194F825
:102680003900322805D084F8396084F83870002089
:10269000D2E7122084F83900F7E70220CCE7704730
:1026A0007047FEE770B51B4886B00025016841F011
:1026B00001010160016801F001010591016841F02B
:1026C00004010160016801F004010591016841F015
:1026D000800101600068032400F080000590022062
:1026E0000126CDE90204CDE9006569460A48FFF7F5
:1026F000E1F8700303948DE8610069460748FFF72D
:10270000D9F80C20009069460548FFF7D3F806B0C9
:1027100070BD000030380240000002400008024056
:10272000001C0240104810B5016886B041F002015B
:1027300001600068012100F0020005900320CDE94E
:102740000210CDE90001094C69462046FFF7B2F8B6
:10275000012211462046FFF79BF901220221204663
:10276000FFF796F906B010BD303802400004024071
:102770000B480A4901604FF48031416000218160BB
:10278000C1600161416101228161C0E90821054AFE
:10279000C0E90A120163C161FEF7CFBF0021014009
:1027A000600100200100000FFEE770470907090ED5
:1027B000002806DA00F00F0000F1E02080F8141D78
:1027C000704700F1E02080F8001470477047000067
:1027D00000B5164887B014490022C0E90012012153
:1027E000816008211023C0E90313402343614FF4A3
:1027F000C073C0E906320A0202624A0242628A02D9
:1028000082620220CDE9000106210291CDE9031088
:102810000590069069460548FFF710FD034800F053
:1028200007F807B000BD0000400100A02C01002007
:1028300010B5002301221146184600F021F84FF48C
:10284000FA7000F099FA002301220221184600F0E4
:1028500017F8002308220321184600F011F84FF45E
:102860000C7301220421002000F00AF8BDE810409A
:1028700040F2AB210148FFF771BD00002C010020A0
:102880001FB5002410B1012802D002E0102400E09E
:102890000824CDE90014CDE902234FF480526946A3
:1028A0000348FFF76CFD002800D0012004B010BDE4
:1028B0002C0100207047000070B51E4C92B000251E
:1028C000266846F080562660246804F080541194EF
:1028D000194C266846F44046266024680DF1240C05
:1028E00004F44044119401240094019402240694B9
:1028F0008CE80D006605CDE907616846FFF710FB1F
:1029000000B1FEE7FFF744F900B1FEE70CA90F2084
:1029100081E831004FF4A0500F904FF48050109098
:1029200005210CA8FFF778F9002800D0FEE712B0C7
:1029300070BD00004038024000700040FFF7B4B89E
:102940001048016841F4700101600F48016841F0CE
:10295000010101600C4A00210832116002680B4B32
:102960001A400260031D0A4A1A60026822F480229B
:10297000026005480C300160024958068039086041
:102980007047000088ED00E000380240FFFFF6FECF
:102990001030002410B590F83910222903D03229C4
:1029A00001D0022010BD8168B1F5805F11D00169AE
:1029B000002901681FD0496801F07F03816A4A1C21
:1029C00082620B70C18D491E0904090CC18518D0A3
:1029D0002FE00269816A002A0268526805D0D2B2EB
:1029E0000A80816A491C8162ECE7C2F308020A800E
:1029F000816A891CF7E74A68816A4B1C83620A7006
:102A0000E0E70168CA6822F02002CA6090F8391035
:102A1000322910D00168CA6822F48072CA60016845
:102A20004A6922F001024A61012180F83910FFF75A
:102A300036FE002010BD1221F7E700002DE9F0411D
:102A4000044600680169E26821F440510A430261CA
:102A50002068C16849F20C6291432369A268E56964
:102A60001A4363692B431A430A43C26020684169D1
:102A700021F44072A16911434161E0696426322565
:102A8000B0F5004F484A494920681DD0884201D01E
:102A9000904269D1FFF7F4F900EBC00101EB00109F
:102AA0006168B0468900B0FBF1F1B1FBF8F6FFF7C1
:102AB000E7F900EBC00101EB001061688900B0FB91
:102AC000F1F7FFF7DDF968E0884201D0904219D1B3
:102AD000FFF7D6F900EBC00101EB00106168B046CA
:102AE0004900B0FBF1F1B1FBF8F6FFF7C9F900EBD3
:102AF000C00101EB001061684900B0FBF1F7FFF77E
:102B0000BFF918E0FFF7A6F900EBC00101EB0010D8
:102B10006168B0464900B0FBF1F1B1FBF8F6FFF790
:102B200099F900EBC00101EB001061684900B0FBAE
:102B3000F1F7FFF78FF900EBC00101EB00106168BE
:102B40004900B0FBF1F1B1FBF8F06FF01801484318
:102B500007EB800005EB0011B1FBF8F0216866F38C
:102B60001F108860BDE8F081FFF774F900EBC00129
:102B700001EB00106168B0468900B0FBF1F1B1FBD8
:102B8000F8F6FFF767F900EBC00101EB0010616890
:102B90008900B0FBF1F7FFF75DF900EBC00101EB35
:102BA000001061688900CCE700140140001001406A
:102BB00090F83910122903D0322901D00220704731
:102BC0008168B1F5805F016A0BD04A1C026202681D
:102BD00009785160C18C491E0904090CC1840ED0CA
:102BE00017E009880268C1F30801516001690029F2
:102BF000016A02D0491C0162ECE7891CFBE701680D
:102C0000CA6822F08002CA600068C16841F04001D1
:102C1000C160002070472DE9F0471D4690460F46E1
:102C20000446FEF73BFF06465FEA08004FF0000946
:102C30004FF0010808D030E0681C05D095B1FEF7D0
:102C40002DFF801BA8420DD82068006837EA0000DD
:102C5000F2D127E0681C20D025B1FEF71FFF801BB2
:102C6000A8421AD92068C16821F08001C16020689B
:102C7000C16821F02001C1602068C16821F4807121
:102C8000C1602068416921F00101416184F8398007
:102C900084F838900320BDE8F0872068006837EAA0
:102CA0000000D7D00020F6E738B518480068006863
:102CB000C043800622D44FF47A7301226946134838
:102CC000FFF788FC124A1088010417D441049DF8CC
:102CD00000104FF0000304D50A290ED140F4004043
:102CE00012E00D290ED0C0F30D04084D401CC83D64
:102CF00080B229551080C72800D913800348FFF7F8
:102D000076FB38BD40F480401080F7E7EC000020EF
:102D10001C000020FEE703B401984100009850EA2F
:102D2000C12018BF04204A0D18BF40F0010040F236
:102D3000FF72B2EB515F08BF40F00200012808BFEC
:102D4000052002B07047704710B504460420FFF715
:102D50002DFB0148046010BD1800002070B5054629
:102D600000244FF47A7603E0304600F005F8641C46
:102D7000AC42F9D370BD000070B54FF0E0250021E2
:102D80006C69094AAB6912685043AA699A42FCD03F
:102D900002D2A3EB020302E0A4EB0206334419447F
:102DA00013468142F1D370BD1800002003490A6820
:102DB0005206FCD5C2B24A607047000000100140C4
:102DC0002DED028B82B0FEF777FE08230222192137
:102DD0004FF4B470FFF770FDB420FFF7B5FF4FF468
:102DE000E13000F02FF8FFF79DFCFFF75BFCFFF7E9
:102DF000EFFCFFF7BDFC9FED0E8B01210420FEF7D9
:102E0000D7FB044600F077F853EC182B00F086F857
:102E100000F040F800F080F941EC100B06A053ECF4
:102E2000102B0094FDF744FA6420FFF797FFE4E7C6
:102E30006666666666664A3F2566202025640D0A3A
:102E4000000000000749064AC1E900200020886010
:102E5000C860086188610C2048610846FFF741BBE3
:102E600000100140EC00002010B500290AD00878BD
:102E7000002807D005487844FDF758FE002801D007
:102E8000002010BD0248784410BD0000620400001C
:102E90005A04000021F00042A2F16052B2F5801FF6
:102EA00001F0004328BFD2F17F6C0BD95FEA001C10
:102EB00043EAC20242EB507018BF704728BF20F0AF
:102EC00001007047B2F5801FBCBF184670474FEA3B
:102ED000410C1CF5001F02D2084600F093B970B5F2
:102EE00000F0C6F800000089FFF7F6BF4FF0004081
:102EF000A0F580007047B0FA80F310FA03F10AD011
:102F0000C3F11D0303F580634FEA41504FEA0352BA
:102F100002EBD12170474FF000007047DFF848C145
:102F200070B51CEA111E1EBF1CEA13159EEA0C0F99
:102F300095EA0C0F00F06F8081EA030423EA4C133A
:102F40004EEAD47E21EA4C1141F4801143F48013FF
:102F5000AE44A1FB024CA0FB0365AEF17F7E3619A7
:102F600055EB0C05A1FB034C4CF10003A0FB021C2C
:102F700016EB0C06654153F10003094218BF46F0F9
:102F8000010613F4007F0BD14FEA03314FEA0530FD
:102F9000340341EA155140EA16506FF003020AE08B
:102FA0004FEAC3214FEAC520F40241EA555140EAF5
:102FB00056506FF0020202EB2E4201EB025585EAF9
:102FC000CE710AD05FEA440C18BF24F0004450F1DF
:102FD000000041F1000120EAD47040F2FE7C62451D
:102FE00000D270BDA84214BF4FF080444FF040445F
:102FF000002E08BF0024BEF1806FA8BFA1F1C04120
:10300000BDE8704080F282804FF0000001F1C041C5
:1030100001F0004170479EEA0C0F0CEA131518BF2F
:1030200095EA0C0F06D04FF0000081EA030E0EF077
:10303000004170BD00F01CF88900013E00F007B8A7
:1030400000F009B84FEA430C5FEA5C5C08D081EA03
:10305000030100F05BB84FEA410C5FEA5C5CF6D11B
:103060004FF00000014970470000FF070000F87FA3
:103070000EF1020E2EF0030E5EF8046B364205D4FC
:10308000012A43EB030515F5001F12D8012841EB77
:10309000010C1CF5001F0CD80ED14FEAD17C15F5A0
:1030A000001F0CEB4C0C0CF1020C08BF4CEBD37C5A
:1030B00004E04FF0080C01E04FEAD37C0CEB4C0528
:1030C00026FA05F606F00706B6F1040C06D20EEB5A
:1030D000860CBDE870404CF0010C6047DFE80CF056
:1030E000090B02024FF000414FF00000A1F5002152
:1030F00070BD19461046012851EB010418BFD4F5E4
:10310000001484BF002001F0004170BD0808A0F544
:1031100000114FEA3101704743004FEAD30C4FEAE8
:103120003C0C43401FBF40070CF1605113F0FE4FB1
:1031300070471CF0006F03D100200CF00041704775
:103140000CF0004343EA507010B540EACC0000F0A8
:103150000EF800BF000000924FEA0001FFF7D6BF53
:103160004FF000414FF00000A1F5002170470EF133
:10317000020E2EF0030E5EF8044B244204D44FEAF4
:103180004102B2F17F4F11D84FEA4003B3F17F4FB4
:103190000CD80ED14FEAD07CB2F17F4F0CEB4C0C27
:1031A0000CF1020C08BF4CEBD17C04E04FF0080C92
:1031B00001E04FEAD17C0CEB4C0324FA03F404F059
:1031C0000704B4F1040C06D20EEB840CBDE81040E9
:1031D0004CF0010C6047DFE80CF0070802024FF0EA
:1031E0000040A0F5800010BD0846420018BFD2F193
:1031F000807288BF00F0004010BD4FF04070E1EEDB
:10320000100A7047FF2141EAD050C0057047FDF712
:10321000FFB90000000001020304010203040607D5
:103220000809000002400000000000A000000000AB
:1032300005400000000000C8000000000C40000035
:103240000000409C00000000194000000020BCBEAF
:103250000000000034400000BFC91B8E00000004C5
:10326000B5400000504BCFD06607E2CF0100000010
:103270006C4100003E8251AADFEEA734010000003D
:10328000D9420000DCB5A0E23A301F97FFFFFFFFF4
:10329000B4450000FD25A0C8E9A3C14FFFFFFFFF13
:1032A000FF3F00000000008000000000FF3F000022
:1032B0000000008000000000F43200080000002040
:1032C00024000000E8010008183300082400002052
:1032D000E4070000040200081C0000004300000096
:1032E000F8FFFFFF0C0000000E0000000F000000C0
:1032F0002E0000000024F400000000000000000088
:103300000102030406070809000000000000000095
:083310000000000000000000B5
:04000005080001AD41
:00000001FF
