:020000040800F2
:10000000C8070020CD1A0008C1040008C304000876
:10001000C7040008CB040008CF040008000000005B
:10002000000000000000000000000000D3040008F1
:10003000D504000800000000D7040008D904000817
:10004000E71A0008E71A0008E71A0008E71A00088C
:10005000E71A0008E71A0008E71A0008CD1600089A
:10006000E71A0008E71A0008E71A0008E71A00086C
:10007000E71A0008E71A0008E71A0008E71A00085C
:10008000E71A0008E71A0008E71A0008E71A00084C
:10009000E71A0008E71A0008E71A0008E71A00083C
:1000A000E71A0008E71A0008E71A0008E71A00082C
:1000B000E71A0008E71A0008E71A0008E71A00081C
:1000C000E71A0008E71A0008E71A0008E71A00080C
:1000D000E71A0008431A0008E71A0008E71A0008A0
:1000E000E71A0008E71A0008E71A0008E71A0008EC
:1000F000E71A0008E71A0008E71A0008E71A0008DC
:10010000E71A0008E71A0008E71A0008E71A0008CB
:10011000E71A0008E71A0008E71A0008E71A0008BB
:10012000E71A0008E71A0008E71A0008E71A0008AB
:1001300000F002F800F03FF80AA090E8000C8244BA
:100140008344AAF10107DA4501D100F034F8AFF297
:10015000090EBAE80F0013F0010F18BFFB1A43F0A5
:10016000010318477C2D00009C2D0000103A24BF8D
:1001700078C878C1FAD8520724BF30C830C144BF0C
:1001800004680C607047000000230024002500264E
:10019000103A28BF78C1FBD8520728BF30C148BFEA
:1001A0000B607047642902F07383002070471FB50D
:1001B0001FBD10B510BD02F033FC1146FFF7F7FF6D
:1001C00000F008F802F051FC03B4FFF7F2FF03BCA3
:1001D00001F0DCFB0024002600254FF4A06002F0B3
:1001E00019FA01F069FB4FF4E13001F0DEFB00F099
:1001F00065FA01F071F901F071FA00F06DFE01F09D
:1002000045FB01251FE0EAB20121082001F0B1F809
:10021000EAB21B21092001F0ACF8EAB209210A2058
:1002200001F0A7F8EAB2FF210B2001F0A2F8EAB230
:10023000E2210C2001F09DF8EAB28021072001F0B4
:1002400098F8681C85B2042DDDDB04208D49087008
:10025000012416E1012C1AD100208B4908600120ED
:100260008A49C1F890018A490860874918310860B5
:100270000020874924390860012085490C3908602D
:1002800083490C3108608349C1F8800157E0022C92
:100290001BD101207C49086000207C49C1F89001F5
:1002A00001207B4908607849183108607849243971
:1002B0000860002076490C390860012074490C312F
:1002C00008607449C1F8800139E0032C1BD101207A
:1002D0006D4908606D49C1F8900100206C490860C3
:1002E0000120694918310860694924390860684962
:1002F0000C390860002066490C310860012065490E
:10030000C1F880011BE0042C19D101205E4908606E
:100310005E49C1F890015E49086000205A491831D1
:10032000086001205A492439086059490C3908608D
:1003300057490C31086000205649C1F8800100205F
:100340005549087081E000205449087072E0E1B21C
:100350005148007801F0ECF9E1B25048007801F022
:100360003BFA0DE0E1B2002001F02FF84C49087093
:10037000012001F0DEFA4A480078072800D100E0A9
:10038000F0E700BF0DE0E1B2002001F01EF84449A3
:100390000870012001F0CDFA41480078022800D110
:1003A00000E0F0E700BF0DE0E1B2002001F00DF841
:1003B0003B490870012001F0BCFA39480078072851
:1003C00000D100E0F0E700BF0DE0E1B2002000F056
:1003D000FCFF33490870012001F0ABFA3048007887
:1003E000022800D100E0F0E700BFE0B201F08AF897
:1003F0002C4908602C492B48006802F0A5FC804677
:1004000002F086FC07462948234A127800EB0210C6
:10041000224A127850F82220601E254B53F8200003
:1004200011183A4623A002F0F3F91C480078401C4A
:100430001A4908701948007812490978884286DB01
:1004400015480078401C14490870134800780D497D
:1004500009788842FFF677AF11480078022800D16A
:10046000641C042C00DD0124701C86B20A2E08D105
:100470001248006808B9012000E000200F49086018
:100480000026E7E6040000209C0122420080214271
:10049000A881214200002242020000200300002027
:1004A00000000020080000200000C8420C000020CE
:1004B0004C00002025642025640D0A00A001214283
:1004C000704700BFFEE700BFFEE700BFFEE700BFCA
:1004D000FEE7704770477047704700000CB500207A
:1004E000019000906C48006840F480306A490860D0
:1004F00000BF6948006800F4003000900198401C7B
:100500000190009818B90198B0F5A06FF1D1624838
:10051000006800F4003010B10120009001E00020DC
:1005200000900098012843D15C48006840F010001A
:100530005A4908600846006820F003000860084631
:10054000006840F002000860534840685249486023
:100550000846406848600846406840F4806048604B
:100560000846406820F47C1048600846406840F423
:10057000E81048600846006840F08070086000BFDE
:100580004548006800F000700028F9D042484068F3
:1005900020F00300404948600846406840F00200EF
:1005A000486000BF3C48406800F00C000828F9D1C2
:1005B0000CBD10B5FFF792FF10BD10B536480068AE
:1005C00040F001003449086008464068344908405A
:1005D0003149486008460068324908402E490860A1
:1005E0000846006820F4802008600846406820F42F
:1005F000FE0048604FF41F008860FFF7DAFF4FF0FD
:1006000000602949086010BD10B5002100200022BB
:10061000214B5B6803F00C0121B1042906D00829A5
:1006200028D107E0214B224C236027E01F4B204CB0
:10063000236023E0184B5B6803F47010164B5B6873
:1006400003F48032022303EB904022B9194B434359
:10065000174C23600DE0104B5B6803F4003323B1AB
:10066000144B4343124C236003E0104B4343104CA4
:10067000236003E00D4B0E4C236000BF00BF064B10
:100680005B68C3F303130C4CE15C094B1B68CB4064
:10069000074C236010BD0000001002400020024003
:1006A0000000FFF8FFFFF6FE08ED00E000127A0000
:1006B0005C00002000093D006000002008B5012119
:1006C000242001F03FFD4FF48070ADF800001020B1
:1006D0008DF8030003208DF802006946094801F0F7
:1006E00075FA4FF48071074801F01DFB0420ADF846
:1006F00000006946044801F069FA0421024801F04B
:1007000012FB08BD000801400014014010B504466A
:10071000012C1DD1FE48406820F47040FC4948601F
:100720000846406840F4405048600020F94908609D
:10073000F949C1F8AC01042001F0D7F80120F549CE
:100740000860F549C1F8AC01042001F0CEF862E080
:10075000022C1FD1EE48006820F47020EC4908609C
:100760000846006840F4403008600020E9491C3920
:100770000860E949C1F89001042001F0B6F80120B1
:10078000E4491C390860E449C1F89001042001F0F3
:10079000ACF840E0032C1DD1E048006820F4702044
:1007A000DE4908600846006840F4403008600020D8
:1007B000DB490860DB49C1F89001042001F095F89D
:1007C0000120D7490860D749C1F89001042001F001
:1007D0008CF820E0042C1ED1D048006820F0706016
:1007E000CE4908600846006840F04070086000206C
:1007F000CB4908310860CB49C1F89801042001F0C9
:1008000074F80120C64908310860C649C1F898014A
:10081000042001F06AF810BD2DE9F04104460D46B0
:10082000012D49D10026BA48406820F47040B849EB
:1008300048600846406840F4004048600020B549E0
:100840000860022001F051F8002718E00020B149AB
:100850000860022001F049F80120AF49C1F8B00159
:100860007006060EAB48843800683043C6B20020DC
:10087000C1F8B001022001F038F8781CC7B2082F87
:10088000E4DBA348406820F47040A1494860084672
:10089000406840F4405048609E48001F04600120BA
:1008A0009D49C1F8B001022001F01FF800209949CC
:1008B00008603046BDE8F081022D4BD100269448F7
:1008C000006820F47020924908600846006840F4EF
:1008D0000020086000208F491C390860022001F0C8
:1008E00004F8002719E000208A491C39086002201A
:1008F00000F0FBFF01208849C1F894017006060E44
:100900008448A03800683043C6B20020C1F8940182
:10091000022000F0EAFF781CC7B2082FE3DB7C4816
:10092000006820F470207A4908600846006840F4A6
:100930004030086077482038046001207649C1F8CB
:100940009401022000F0D1FF002072491C39086098
:100950003046AFE7032D48D100267048006820F4E8
:1009600070206E4908600846006840F40020086066
:1009700000206B490860022000F0B7FF002718E054
:10098000002067490860022000F0AFFF01206549A0
:10099000C1F894017006060E61488438006830433F
:1009A000C6B20020C1F89401022000F09EFF781C1E
:1009B000C7B2082FE4DB5948006820F4702057497B
:1009C00008600846006840F4403008605448001F42
:1009D000046001205349C1F89401022000F085FF12
:1009E00000204F490860304664E7042D4BD10026B3
:1009F0004A48006820F0706048490860084600686E
:100A000040F000600860002045490831086002207D
:100A100000F06BFF002719E0002041490831086011
:100A2000022000F062FF01203E49C1F89C017006DF
:100A3000060E3B487C3800683043C6B20020C1F83F
:100A40009C01022000F051FF781CC7B2082FE3DBA5
:100A50003248006820F0706030490860084600683D
:100A600040F0407008602E48001D046001202D49B0
:100A7000C1F89C01022000F038FF0020284908310D
:100A80000860304616E700BF002013E770B5044643
:100A90000D46012D58D11E48406820F470401C4975
:100AA00048600846406840F44050486000201949BA
:100AB0000860022000F019FF002617E0E009154940
:100AC000091F08606006040E022000F00EFF0120DE
:100AD0001149C1F8B001022000F007FF00200D49C4
:100AE0000860022000F001FF701CC6B2082EE5DB92
:100AF0000748406820F4704005494860084640684F
:100B000040F40040486001200249086002480BE0C0
:100B100000100140B00122420000224200080140C2
:100B20009401214200002142D0F82C0128B1FE4856
:100B3000007840F00200FC490870022000F0D5FE69
:100B40000020FA490860F1E0022D4FD1F848006812
:100B500020F47020F64908600846006840F44030F0
:100B600008600020F1491C390860022000F0BDFE39
:100B7000002618E0E009ED49203908606006040EFF
:100B8000022000F0B2FE0120EA49C1F894010220DF
:100B900000F0ABFE0020E5491C390860022000F09F
:100BA000A4FE701CC6B2082EE4DBE148006820F405
:100BB0007020DF4908600846006840F400200860A3
:100BC0000120DA491C390860DA48D0F8100128B150
:100BD000D548007840F00200D3490870022000F0A8
:100BE00084FE0020D1491C3908609FE0032D4BD1C1
:100BF000D148006820F47020CF490860084600689A
:100C000040F4403008600020CC490860022000F029
:100C10006CFE002617E0E009C849091F086060065D
:100C2000040E022000F061FE0120C549C1F89401C4
:100C3000022000F05AFE0020C0490860022000F0A7
:100C400054FE701CC6B2082EE5DBBB48006820F4D9
:100C50007020B94908600846006840F40020086028
:100C60000120B6490860B648D0F8100128B1AE4856
:100C7000007840F00200AC490870022000F035FE18
:100C80000020AE49086051E0042D4FD1AA48006809
:100C900020F07060A84908600846006840F0407085
:100CA00008600020A54908310860022000F01DFE00
:100CB000002618E0E009A149091D08606006040E3D
:100CC000022000F012FE01209D49C1F89C01022083
:100CD00000F00BFE0020994908310860022000F066
:100CE00004FE701CC6B2082EE4DB9348006820F0B6
:100CF0007060914908600846006840F00060086034
:100D000001208E49083108608D48D0F8180128B1BB
:100D10008548007840F0020083490870022000F006
:100D2000E4FD002085490831086000BF70BD10B5A2
:100D30000446012C23D17E48406820F470407C4951
:100D400048600846406840F44050486000207649BA
:100D5000087001207549091F08607649C1F8B00183
:100D6000042000F0C2FD00207049091F0860042023
:100D700000F0BBFD00206F49C1F8B00170E0022C0B
:100D800023D16B48006820F4702069490860084648
:100D9000006840F44030086000206349087001207A
:100DA0006249203908606349C1F89401042000F0C9
:100DB0009CFD00205D4920390860042000F095FD6D
:100DC00000205C49C1F894014AE0032C23D15A4821
:100DD000006820F47020584908600846006840F414
:100DE0004030086000205049087001205349091F15
:100DF00008605349C1F89401042000F076FD0020FA
:100E00004E49091F0860042000F06FFD00204C4986
:100E1000C1F8940124E0042C22D14748006820F056
:100E20007060454908600846006840F040700860FE
:100E300000203D49087001204049091D08604049D3
:100E4000C1F89C01042000F050FD00203B49091D21
:100E50000860042000F049FD00203949C1F89C01D8
:100E600010BD70B504462046FFF761FF2146902073
:100E7000FFF70CFE2C48007800F0020018B921465C
:100E80000A20FFF703FE2848007800F0020030B97E
:100E90002046FFF74CFF21469120FFF7F7FD22483F
:100EA000007800F0020020B921460020FFF7B4FCD2
:100EB0000546294623A001F0ABFC2046FFF726FC9F
:100EC0001948007800F0020028B11748007840F077
:100ED00001001549087070BD08B50121142001F00A
:100EE00031F941F63000ADF8000010208DF8030014
:100EF00003208DF8020069460D4800F067FE4FF2AE
:100F0000F010ADF8000069460B4800F05FFE0020CD
:100F1000064908600749C1F8AC0104491C3908605A
:100F2000091F0860054915E073000020B001224246
:100F300000100140000022420008014094012142BB
:100F400000002142636F6E66696725642020647328
:100F5000730D0A000860091F0860EE490860EE4939
:100F6000C1F8980108BD70B50446012C29D10025AF
:100F7000EA48406820F47040E84948600846406804
:100F800040F4004048600120E549086000F0ADFCF5
:100F90000120E449C1F8B00100F0A7FC08E0681C9A
:100FA000C5B2FA2D04DD2046FFF7B0FB012070BD6D
:100FB000DB48803800680028F1D1D949091D086054
:100FC000F5E7022C2AD10025D448006820F47020CF
:100FD000D24908600846006840F4002008600120FB
:100FE000CF491C39086000F080FC0120CD49C1F8D0
:100FF000940100F07AFC08E0681CC5B2FA2D04DD0B
:101000002046FFF783FB0120D1E7C5489C380068E4
:101010000028F1D1C24918390860C8E7032C2AD149
:101020000025C148006820F47020BF4908600846C8
:10103000006840F4002008600120B6490C390860BF
:1010400000F053FC0120B449C1F8940100F04DFCBC
:1010500008E0681CC5B2FA2D04DD2046FFF756FBF8
:101060000120A4E7AB488C3800680028F1D1A949D9
:10107000083908609BE7042C29D10025AA4800689C
:1010800020F07060A84908600846006840F00060E1
:10109000086001209F49091F086000F026FC01201C
:1010A0009D49C1F89C0100F020FC08E0681CC5B215
:1010B000FA2D04DD2046FFF729FB012077E795484C
:1010C000843800680028F1D1924908606FE700BFBA
:1010D00000206CE710B50446012C21D10020904976
:1010E000091D08608D48406820F470408B494860B5
:1010F0000846406840F44050486000208949C1F8E3
:10110000AC01022000F0F1FB01208549091D0860B7
:10111000022000F0EAFB00208249C1F8B00168E03B
:10112000022C21D100207E49183908607B480068D4
:1011300020F47020794908600846006840F4403087
:10114000086000207749C1F89001022000F0CDFB33
:101150000120734918390860022000F0C6FB002006
:101160007049C1F8940144E0032C21D10020694961
:10117000083908606C48006820F470206A490860EB
:101180000846006840F44030086000206249C1F819
:101190009001022000F0A9FB01205E490839086097
:1011A000022000F0A2FB00205B49C1F8940120E07E
:1011B000042C1ED10020574908605B48006820F0CD
:1011C0007060594908600846006840F04070086047
:1011D00000205149C1F89801022000F086FB01204F
:1011E0004C490860022000F080FB00204A49C1F809
:1011F0009C0110BD10B50446012C21D100204849A6
:10120000091D08604548406820F470404349486023
:101210000846406840F44050486001204149C1F808
:10122000AC01022000F061FB01203D49091D08606E
:10123000022000F05AFB00203A49C1F8B00168E0F2
:10124000022C21D100203649183908603348006843
:1012500020F47020314908600846006840F44030AE
:10126000086001202F49C1F89001022000F03DFBE9
:1012700001202B4918390860022000F036FB0020BD
:101280002849C1F8940144E0032C21D100202149D0
:10129000083908602448006820F47020224908605A
:1012A0000846006840F44030086001201A49C1F83F
:1012B0009001022000F019FB01201649083908604E
:1012C000022000F012FB00201349C1F8940120E035
:1012D000042C1ED100200F4908601348006820F03C
:1012E0007060114908600846006840F0407008606E
:1012F00001200949C1F89801022000F0F6FA012006
:1013000004490860022000F0F0FA00200249C1F808
:101310009C0110BD9C0121420000214200100140AF
:10132000AC012242000022420008014070B505468F
:101330002846FFF7FCFC29469020FFF7A7FBC5488D
:10134000007800F0020020B92946BF20FFF79EFB7D
:1013500005E0C048007840F00100BE49087028460A
:10136000FFF7D4F9002401E0601CC4B2FE2CFBDBC3
:1013700070BD70B506460D4614462046FFF7D7FCF3
:1013800021469020FFF782FBB248007800F002006F
:1013900018B921463046FFF779FBAE48007800F0D7
:1013A000020018B921462846FFF770FB2046FFF7D8
:1013B000ADF9A848007800F0020028B1A5480078EF
:1013C00040F00100A349087070BD70B505460C4699
:1013D0002046FFF7ACFC21469020FFF757FB9D48C5
:1013E000007800F0020018B921462846FFF74EFBAE
:1013F0009848007800F0020030B92046FFF797FCCB
:1014000021469120FFF742FB9248007800F002004D
:1014100020B921460120FFF7FFF906462046FFF7D5
:1014200075F98C48007800F0020028B189480078EE
:1014300040F0010087490870304670BD10B5044681
:101440002046FFF774FC21469020FFF71FFB8148E0
:10145000007800F0020018B921460120FFF716FBC2
:101460007C48007800F0020030B92046FFF75FFCAE
:1014700021469120FFF70AFB7648007800F0020031
:1014800028B921460020FFF7C7F973490870714851
:10149000007800F0020028B921460020FFF7BCF9CF
:1014A0006E4908706B48007800F0020028B92146A8
:1014B0000120FFF7B1F96A4908702046FFF726F9C5
:1014C0006448007800F0020028B16248007840F0DB
:1014D00001006049087010BD10B5012404E02046E9
:1014E000FFF724FF601CC4B2042CF8DD59480078D3
:1014F00000F0010010B100205649087059485A49BF
:10150000086010BD2DE9FC5F81464846FFF796FF55
:10151000514890F800A0514890F800B05048007829
:1015200001904FEA0A4040EA0B20019940EA010489
:101530004E480460204601F0D6FA07464C4A4D4B0F
:1015400001F0E8FA054601F09DFA00900098BDE828
:10155000FC9F70B505460C46002D3ED174B908219C
:10156000454800F0E2FB4FF48061434800F0DDFBAA
:101570004FF40041414800F0D8FB6AE0012C0CD147
:1015800008213D4800F0D1FBA1023B4800F0CDFB13
:10159000E1033A4800F0C7FB5BE0022C0CD10821C4
:1015A000354800F0C2FB6102334800F0BCFBA103E8
:1015B000324800F0BAFB4CE0032C4AD108212E48F7
:1015C00000F0B3FB4FF480612B4800F0ACFB4FF40C
:1015D00000412A4800F0A7FB3BE06CB94FF40051F2
:1015E000254800F0A2FB0121234800F09EFB0421C6
:1015F000214800F09AFB2CE0012C0CD161031E481D
:1016000000F093FB01211C4800F08FFB04211A48D5
:1016100000F089FB1DE0022C0CD12103164800F0DC
:1016200084FB0121144800F07EFB0421124800F0E5
:101630007CFB0EE0032C0CD14FF400510E4800F05F
:1016400074FB01210C4800F06EFB04210A4800F0F5
:101650006AFB70BD73000020700000207100002044
:1016600072000020241209417C0000207400002038
:1016700017E53297CCCCD83E00100140000C014059
:101680000EB50121084600F05DFD0121022000F0A9
:10169000B3FB0220019000208DF808000C208DF88B
:1016A000090001208DF80A0001A801F02FF8072099
:1016B0008DF8000002208DF801008DF80200012055
:1016C0008DF80300684600F0AAFF0EBD10B501209A
:1016D00000F00BF9012001F090F810BD08B50121D0
:1016E000192000F02FFD0121654800F040FB4FF666
:1016F000FF70ADF8000010208DF8030003208DF876
:10170000020069465F4800F061FA4FF6FF715D48DC
:1017100000F00BFB42F2CD70ADF8000069465A486C
:1017200000F054FA42F2CD71574800F0FEFA08BDBD
:101730002DE9F04704468946B9F1010F05D1524D14
:101740002E466F154FF480781AE0B9F1020F05D1DB
:101750004C4D2E4604274FF0080811E0B9F1030F55
:1017600005D1484D2E46AF154FF4007808E0B9F189
:10177000040F05D1434D2E464FF480474FF40048E7
:1017800044B94146304600F0D0FA3946284600F0C8
:10179000CCFA1FE0012C08D14146304600F0C5FAD2
:1017A0003946284600F0BFFA14E0022C08D1414621
:1017B000304600F0B8FA3946284600F0B6FA09E09B
:1017C000032C07D14146304600F0ADFA3946284691
:1017D00000F0A9FABDE8F0872DE9F04704468946F4
:1017E000B9F1010F05D1284D264E40274FF00108D1
:1017F00019E0B9F1020F05D1224D2E4620274FF0F6
:10180000400810E0B9F1030F05D11E4D2E46EF142C
:101810004FF4805807E0B9F1040F04D11A4D2E4659
:1018200008274FF0040844B94146304600F07DFADD
:101830003946284600F079FA1FE0012C08D14146CC
:10184000304600F072FA3946284600F06CFA14E08F
:10185000022C08D14146304600F065FA3946284648
:1018600000F063FA09E0032C07D14146304600F04E
:101870005AFA3946284600F056FABDE8F0870000CB
:1018800000043000000C01400010014008B50121A7
:10189000042000F057FC0C20ADF8000048208DF823
:1018A00003006946034800F091F90C21014800F05B
:1018B0003AFA08BD0008014010B56FF0040000F0CE
:1018C000F8FE2E4800682E49B0FBF1F02D49087053
:1018D0000846007800EB4001C1EBC0104FF6FF71E5
:1018E00001EAC0002849088010BD0146254A127847
:1018F0004A434FF0E0235A6100229A611A46126966
:1019000042F001021A6100BF4FF0E022106900F0BE
:1019100001021AB100F48032002AF5D04FF0E02223
:10192000126922F001024FF0E0231A6100229A614D
:1019300070470146144A12884A434FF0E0235A6127
:1019400000229A611A46126942F001021A6100BF30
:101950004FF0E022106900F001021AB100F4803269
:10196000002AF5D04FF0E022126922F001024FF078
:10197000E0231A6100229A61704700005C00002099
:1019800000127A008000002082000020014600BF83
:10199000704700BF494A128802F04002002AF9D07D
:1019A000C2B2464B1B1D1A80704710B586B0044664
:1019B000012144F2040000F0C5FB4FF40070ADF8C3
:1019C000140003208DF8160018208DF8170005A9C3
:1019D0003B4800F0FBF84FF48060ADF814000420A1
:1019E0008DF8170005A9364800F0F0F825208DF88D
:1019F000000003208DF801008DF8020001208DF811
:101A00000300684600F00BFE01940020ADF80800CA
:101A1000ADF80A00ADF80C00ADF810000C20ADF8E0
:101A20000E0001A9254800F034FC012240F22551A6
:101A3000224800F0C6FC0121204800F0B6FC06B0A8
:101A400010BD10B540F225511C4800F09FFD10B3A9
:101A50001A4800F01BFDC4B21A48008800F4004088
:101A6000C8B91848008800F4804060B10A2C03D03F
:101A700000201449088020E01248008840F400400B
:101A80001049088019E00D2C06D10E48008840F45A
:101A900080400C49088010E00A480088C0F30D001F
:101AA00009490C5407480088401C0649088008462C
:101AB0000088C72801DD0020088010BD00380140E3
:101AC0000008014088000020A0000020094880474D
:101AD00009480047FEE7FEE7FEE7FEE7FEE7FEE710
:101AE000FEE7FEE7FEE7FEE704480549054A064B28
:101AF00070470000BB05000831010008C801002044
:101B0000C8070020C8030020C803002010B5044601
:101B1000CC48844208D10121042000F02DFB002193
:101B2000042000F029FB46E0C748844208D1012187
:101B3000082000F021FB0021082000F01DFB3AE006
:101B4000C248844208D10121102000F015FB002179
:101B5000102000F011FB2EE0BD48844208D1012185
:101B6000202000F009FB0021202000F005FB22E0EE
:101B7000B848844208D10121402000F0FDFA00213C
:101B8000402000F0F9FA16E0B348844208D1012160
:101B9000802000F0F1FA0021802000F0EDFA0AE048
:101BA000AE48844207D10121801500F0E5FA0021FA
:101BB000A01500F0E1FA10BD10B50121084600F0B3
:101BC000DBFA0021012000F0D7FA10BD2DE9F04129
:101BD000024600250026002000230024002791F85B
:101BE00003C00CF00F0591F803C00CF0100CBCF111
:101BF000000F03D091F802C04CEA050591F800C02F
:101C0000BCF1000F31D0146800202BE04FF0010C24
:101C10000CFA00F3B1F800C00CEA03069E4220D192
:101C200083004FF00F0C0CFA03F7BC4305FA03FCDA
:101C30004CEA040491F803C0BCF1280F06D14FF020
:101C4000010C0CFA00FCC2F814C00AE091F803C0C1
:101C5000BCF1480F05D14FF0010C0CFA00FCC2F8A2
:101C600010C0401C0828D1D31460B1F800C0BCF1EA
:101C7000FF0F34DD546800202EE000F1080C4FF017
:101C8000010808FA0CF3B1F800C00CEA03069E4202
:101C900021D183004FF00F0C0CFA03F7BC4305FA77
:101CA00003FC4CEA040491F803C0BCF1280F05D1F1
:101CB00000F1080C08FA0CF8C2F8148091F803C07F
:101CC000BCF1480F07D100F1080C4FF0010808FAE9
:101CD0000CF8C2F81080401C0828CED35460BDE830
:101CE000F0814FF6FF710180022181700421C170E3
:101CF00070470246002093680B400BB1012000E0C2
:101D0000002070470146886880B270470246002074
:101D1000D3680B400BB1012000E000207047014662
:101D2000C86880B2704701617047416170470AB16D
:101D3000016100E041617047C16070474FF480323B
:101D40000A438261816182618269826970470246C9
:101D50000020434B18684FF68073184040EA021089
:101D600008433F4B186070473E49C8617047F0B563
:101D70000A46002300240021002500F00046B6F1A9
:101D8000004F02D1364EF16901E0354E7168C0F363
:101D9000034583B200F44016B6F5401F08D121F088
:101DA00070612F4E766826F070662D4F7E6012E0CF
:101DB00000F48016B6F5801F06D1032606FA05F456
:101DC000A14341F0706106E0460D360103FA06F6C4
:101DD000B14341F0706122B1460D360103FA06F6B7
:101DE000314300F00046B6F1004F02D11C4EF161C4
:101DF00001E01B4E7160F0BD30B500228B071C0F57
:101E00000F2303FA04F2164B08338C1053F82430D6
:101E10009343134C08348D1044F8253023468C101E
:101E200053F824308C07240F00FA04F423430C4C9D
:101E300008348D1044F8253030BD0A49DC31086083
:101E40007047000000080140000C014000100140F4
:101E50000014014000180140001C01400020014016
:101E60000000014000002042DF48006840F001000F
:101E7000DD49086008464068DC490840DA494860A6
:101E800008460068DA490840D749086008460068F3
:101E900020F4802008600846406820F4FE00486076
:101EA0004FF41F0088607047CF49096821F48031E2
:101EB000CD4A11601146096821F480211160B0F506
:101EC000803F03D0B0F5802F0ED106E0C6490968E7
:101ED00041F48031C44A116007E0C349096841F404
:101EE000A021C14A116000E000BF00BF704710B5DB
:101EF00001460022002300204A11012A02D1BA4CD7
:101F0000236806E0022A02D1B74C236A01E0B64CEE
:101F1000636A01F01F02012494401C400CB10120AF
:101F200000E0002010BD38B50020009000240025FE
:101F300000BF3120FFF7DBFF05460098401C0090F2
:101F40000098B0F5A06F01D0002DF2D03120FFF73E
:101F5000CEFF08B1012400E00024204638BD014630
:101F60000020A14A106820F0F80040EAC10010608B
:101F70007047A04908607047024600209A4B586895
:101F800020F47C1042EA01031843974B58607047D5
:101F900098490866704701460020934A506820F02F
:101FA00003000843506070478F48406800F00C0001
:101FB0007047014600208C4A506820F0F00008432A
:101FC0005060704701460020874A506820F4E06066
:101FD00008435060704701460020834A506820F44F
:101FE000605040EAC1005060704729B17E4A527A81
:101FF00002437D4B5A7204E07B4A527A82437A4B09
:102000005A7270477B49D8310860704701460020FA
:10201000754A506820F440400843506070470021E2
:10202000714A20321170704A82F82010012802D0C3
:1020300004280AD104E001216B4A2032117005E026
:102040000521694A2032117000E000BF00BF7047CF
:102050006949086070476449096A0143624A11622C
:102060007047654944390860704730B50021002247
:10207000002400235C4D6D6805F00C0121B104299A
:1020800005D0082923D105E05C4D056022E05B4DB9
:1020900005601FE0544D6D6805F47012524D6D6877
:1020A00005F48034022505EB92421CB9544D55438A
:1020B00005600BE04C4D6D6805F400351DB1504DC9
:1020C0005543056002E04D4D5543056002E04B4D20
:1020D000056000BF00BF444D6D6805F0F0010909BF
:1020E000484D6B5C0568DD4045603F4D6D6805F40B
:1020F000E061090A434D6B5C4568DD4085603A4DFF
:102100006D6805F46051C90A3E4D6B5C4568DD4061
:10211000C560354D6D6805F44041890B3A4D6B5CE7
:10212000C568B5FBF3F5056130BD29B12E4A52698A
:1021300002432D4B5A6104E02B4A526982432A4BD9
:102140005A61704729B1284A92690243264B9A6125
:1021500004E0254A92698243234B9A61704729B172
:10216000214AD2690243204BDA6104E01E4AD26957
:1021700082431D4BDA61704729B11B4AD268024382
:10218000194BDA6004E0184AD2688243164BDA60D1
:10219000704729B1144A12690243134B1A6104E0D3
:1021A000114A12698243104B1A6170471249403933
:1021B000086070470F49C86470470B49C871704781
:1021C0000948406A40F080700749486270470146FC
:1021D0000020054A92680A400AB1012000E0002070
:1021E0007047014988727047001002400000FFF8F4
:1021F000FFFFF6FE000042428004424200127A00D5
:1022000000093D008A0000209A00002010B5044615
:10221000FB48844209D101218803FFF7ADFF00216B
:102220004FF48040FFF7A8FF32E0F648844209D11E
:1022300001214804FFF7ADFF00214FF40030FFF704
:10224000A8FF25E0F048844209D101218804FFF766
:10225000A0FF00214FF48020FFF79BFF18E0EB4820
:10226000844209D10121C804FFF793FF00214FF4F4
:102270000020FFF78EFF0BE0E548844208D10121E2
:102280000805FFF786FF00214FF48010FFF781FF5C
:1022900010BD2DE9F04786B005460E460024A24643
:1022A00000BFA1460027B08900B100BF2F462C8A8D
:1022B0004CF6FF700440F08804432C82AC894EF643
:1022C000F3100440B08831890843718908430443FE
:1022D000AC81AC8A4FF6FF400440B0890443AC8225
:1022E00001A8FFF7C2FEC648874202D1DDF810A060
:1022F00001E0DDF80CA0A88900F4004040B10AEB31
:10230000CA0000EB0A1031684900B0FBF1F807E0A1
:102310000AEBCA0000EB0A1031688900B0FBF1F843
:102320006420B8FBF0F004012009642101FB10894E
:10233000A88900F4004040B1322000EBC900B0FB96
:10234000F1F000F00700044308E0322000EB091030
:102350006421B0FBF1F000F00F0004432C8106B0C3
:10236000BDE8F0874FF41651016000218180C180E3
:1023700001810C21418100218181704710B5024605
:102380000020108A4FF2FF0318400B884C8823432B
:102390008C882343CC8823431843108210BD00212E
:1023A000018041808180C180704721B1828942F4DF
:1023B0000052828104E082894DF6FF731A408281C7
:1023C0007047F0B50346002400260025002040F6A3
:1023D0006A17B94200D100BF1846C1F3421401F098
:1023E0001F06012707FA06F5012C01D10C3004E085
:1023F000022C01D1103000E014301AB107682F43CD
:10240000076002E00768AF430760F0BD1AB1838A36
:102410000B43838202E0838A8B4383827047028A64
:102420004FF6F0731A400282028A0A430282704712
:1024300082894FF2FF731A40828182890A43828126
:10244000704721B1828942F00202828104E08289D0
:102450004FF6FD731A4082817047028A4FF6DF7390
:102460001A400282028A0A430282704721B1028A1C
:1024700042F48042028204E0028A4BF6FF731A4063
:1024800002827047C1F30802828070470146888843
:10249000C0F308007047818941F0010181817047D4
:1024A000028BD2B20283028B42EA0122028370477E
:1024B000028B02F47F420283028B0A43028370473D
:1024C00021B1828A42F02002828204E0828A4FF6A1
:1024D000DF731A408282704721B1828A42F0100273
:1024E000828204E0828A4FF6EF731A40828270473C
:1024F00021B1828A42F00802828204E0828A4FF689
:10250000F7731A408282704721B1828942F40042F7
:10251000828103E08289C2F30E028281704721B179
:10252000828A42F40062828204E0828A4FF2FF7360
:102530001A4082827047828A4FF6FB731A40828269
:10254000828A0A438282704721B1828A42F0020263
:10255000828204E0828A4FF6FD731A4082827047BD
:1025600002460020B1F5007F00D100BF13880B4068
:102570000BB1012000E00020704701F40072B2F5B9
:10258000007F00D100BFCA430280704770B5024689
:10259000002400230025002040F66A16B14200D135
:1025A00000BFC1F3421501F01F03012606FA03F331
:1025B000012D02D19689334006E0022D02D1168A00
:1025C000334001E0968A33400C12012606FA04F4E7
:1025D0001688344013B10CB1012000E0002070BD1A
:1025E00010B50022002340F66A14A14200D100BFBA
:1025F0000A1201249440A3B2DC43048010BD000001
:10260000003801400044004000480040004C0040B9
:102610000050004031490143314A1160704770B5A4
:10262000002100230F22C47804B32D4C246804F445
:10263000E064C4F5E064210AC1F10403CA404478AF
:1026400004FA03F18478144021430901254C0678EB
:10265000A155047804F01F050124AC4005786D11E4
:10266000AD0005F1E025C5F8004109E0047804F06B
:102670001F050124AC401C4D0678761145F8264014
:1026800070BD1A4A0A400243154B1B1F1A6070475F
:1026900039B1134A121D12680243114B1B1D1A60F7
:1026A00006E00F4A121D126882430D4B1B1D1A6073
:1026B0007047042808D14FF0E021096941F0040176
:1026C0004FF0E022116107E04FF0E021096921F0AD
:1026D00004014FF0E0221161704700000000FA058C
:1026E0000CED00E000E400E080E100E080FFFF1F6F
:1026F000002044490860091D0860091D0860091D83
:10270000086041483F4914310860704700213D4945
:102710008279002A3AD00A46126803689A430B4627
:102720001A600A1D126803689A430B1D1A60027929
:1027300011440A6803681A430A60324A0832126870
:1027400003689A432F4B08331A601A1D12680368F6
:102750009A432C4B0C331A604279102A0ED11A1F5F
:10276000126803681A43274B08331A601A1D12684F
:1027700003681A43234B0C331A600DE02149427958
:1027800011440A6803681A430A6005E0027911449B
:102790000A6803689A430A6070470021016001716A
:1027A0000C2141710021817170471649103109686F
:1027B0000143144A10321160704701460020114A4B
:1027C000143212680A400AB1012000E0002070476C
:1027D0000C49143108607047014600200022094B63
:1027E0001B6803EA0102074B14331B680B4013B14B
:1027F0000AB1012000E0002070470249143108604E
:102800007047000000040140FFFF0F007047000008
:102810000FB4044910B503AA029800F0D3F810BC15
:102820005DF814FB840000202DE9F0410E460446BB
:10283000002020622046E168884730B3252805D073
:10284000D4E901219047206A401CF2E7E168204664
:1028500000278847050018D0A5F14100192802D8A3
:1028600020354FF400673246294620462760FDF7A1
:1028700099FC40B1012804D0F61D26F00706083661
:10288000D8E7361DD6E72846DAE7206ABDE8F081AA
:102890002DE9F0410646002410687529314616A539
:1028A00010D0AFF30080002802DA404213A507E001
:1028B00031688A0701D512A502E0490704D511A5A0
:1028C000012401E0AFF3008000210A2206F1240771
:1028D00009E0B0FBF2FCB0FBF2F302FB1C0030306D
:1028E00078541846491C0028F3D123462A4630461E
:1028F000BDE8F04100F00CB8000000002D00000021
:102900002B000000200000007047704770477047A0
:102910002DE9F0470D4699469246044600F12408F9
:102920000168880604D5E06921F01001216000E00B
:102930000120A84201DD471B00E00027A1697A19A8
:1029400002EB0900081AA0612078C00602D42046D4
:10295000AFF30080002608E0D4E901211AF8060050
:102960009047206A401C761C20624E45F4DB20789C
:10297000C0060AD52046AFF3008006E0D4E9012165
:1029800030209047206A401C2062381EA7F10107C2
:10299000F4DC07E0D4E9012118F805009047206A2B
:1029A000401C2062281EA5F10105F3DC2046AFF390
:1029B00000802078000602D50220BDE8F0870120C3
:1029C000FBE70000074B70B50D467B4400F011F8A3
:1029D0000446284600F020F810B14FF0FF3070BDDB
:1029E000204670BDC5EFFFFF01694A1C02610878EF
:1029F000704700B58FB0CDE901310021059105493F
:102A00007944CDE9031011466846FFF70DFF0FB07A
:102A100000BD0000E5FFFFFF007B00F08000704775
:102A2000754600F02BF8AE4605006946534620F087
:102A30000700854618B020B5FFF756F8BDE82040DE
:102A40004FF000064FF000074FF000084FF0000B6A
:102A500021F00701AC46ACE8C009ACE8C009ACE81D
:102A6000C009ACE8C0098D46704710B50446AFF305
:102A700000802046BDE81040FDF7A6BB0048704727
:102A80006801002021F00042A2F16052B2F5801FDF
:102A900001F0004328BFD2F17F6C0BD95FEA001C24
:102AA00043EAC20242EB507018BF704728BF20F0C3
:102AB00001007047B2F5801FBCBF184670474FEA4F
:102AC000410C1CF5001F02D2084600F004BA70B594
:102AD00000F0CAF800000089FFF7F6BF4FF0004091
:102AE000A0F58000704710F0004248BF4042B0FAA5
:102AF00080F310FA03F10AD0C3F11D0303F58063DC
:102B00004FEA415002EB035202EBD12170474FF0E4
:102B100000007047DFF848C170B51CEA111E1EBFE7
:102B20001CEA13159EEA0C0F95EA0C0F00F06F805B
:102B300081EA030423EA4C134EEAD47E21EA4C11C5
:102B400041F4801143F48013AE44A1FB024CA0FB7E
:102B50000365AEF17F7E361955EB0C05A1FB034CE6
:102B60004CF10003A0FB021C16EB0C06654153F16F
:102B70000003094218BF46F0010613F4007F0BD191
:102B80004FEA03314FEA0530340341EA155140EA78
:102B900016506FF003020AE04FEAC3214FEAC52046
:102BA000F40241EA555140EA56506FF0020202EB3E
:102BB0002E4201EB025585EACE710AD05FEA440C41
:102BC00018BF24F0004450F1000041F1000120EA58
:102BD000D47040F2FE7C624500D270BDA84214BFA2
:102BE0004FF080444FF04044002E08BF0024BEF157
:102BF000806FA8BFA1F1C041BDE8704080F2828023
:102C00004FF0000001F1C04101F0004170479EEA21
:102C10000C0F0CEA131518BF95EA0C0F06D04FF0F5
:102C2000000081EA030E0EF0004170BD00F01CF8B8
:102C30008900013E00F007B800F009B84FEA430CE4
:102C40005FEA5C5C08D081EA030100F05BB84FEA00
:102C5000410C5FEA5C5CF6D14FF00000014970471F
:102C60000000FF070000F87F0EF1020E2EF0030EA9
:102C70005EF8046B364205D4012A43EB030515F5D3
:102C8000001F12D8012841EB010C1CF5001F0CD8C5
:102C90000ED14FEAD17C15F5001F0CEB4C0C0CF15A
:102CA000020C08BF4CEBD37C04E04FF0080C01E0B1
:102CB0004FEAD37C0CEB4C0526FA05F606F0070626
:102CC000B6F1040C06D20EEB860CBDE870404CF059
:102CD000010C6047DFE80CF0090B02024FF00041E5
:102CE0004FF00000A1F5002170BD194610460128E3
:102CF00051EB010418BFD4F5001484BF002001F08B
:102D0000004170BD0808A0F500114FEA310170477D
:102D100041000B0ED3F19E0208D950F400034FEA94
:102D2000032323FA02F048BF4042704710B500F079
:102D30008CF800BF49922480002070476FF0004259
:102D400082EA2000704700004FF47F0C1CEAD0128A
:102D50001EBF1CEAD11392EA0C0F93EA0C0F00F08D
:102D6000478090EA010F48BF42F480724FF0004C58
:102D70004CEA00204CEA012102EB0302A0FB011304
:102D8000A2F50002002918BF43F001035B0028BF31
:102D90004FEA330342EB22425FEA132C4CEBC25062
:102DA0002EBFBCEB436FB2F57C0F70474FEA036C4C
:102DB000BCF1004F08BF20F00100B2F57C0F38BF16
:102DC00070470BD582F0FF0212F5803FC8BF7047F5
:102DD00000F1C040D8BF00F00040704700F5000C83
:102DE0005FEA4C0C48BF7047B0F1C04000F073B8C8
:102DF00090EA010F0CEAD11348BF42F48072624599
:102E000038BF634504D280EA010000F000407047FB
:102E100010B500F01AF800BF8900013E00F007B8B5
:102E200000F009B85FEA410C5FEA1C6C08D080EA48
:102E3000010000F050B85FEA400C5FEA1C6CF6D16C
:102E40004FF00040A0F5800070470EF1020E2EF00A
:102E5000030E5EF8044B244204D44FEA4102B2F15F
:102E60007F4F11D84FEA4003B3F17F4F0CD80ED1FA
:102E70004FEAD07CB2F17F4F0CEB4C0C0CF1020C02
:102E800008BF4CEBD17C04E04FF0080C01E04FEAA6
:102E9000D17C0CEB4C0324FA03F404F00704B4F1E6
:102EA000040C06D20EEB840CBDE810404CF0010C73
:102EB0006047DFE80CF0070802024FF00040A0F581
:102EC000800010BD0846420018BFD2F1807288BF52
:102ED00000F0004010BDFF2141EAD050C00570470E
:102EE000002F000800000020A00000006C01000876
:102EF000A02F0008A000002028070000880100087B
:102F000000000000000000000000000001000000C0
:102F1000020000000300000004000000090000009F
:102F20000A0000000B0000000C000000110000006F
:102F3000120000001300000014000000190000003F
:102F40001A0000001B0000001C0000000000000030
:102F500004000000200000002400000000A24A0439
:102F60000000000000000000010203040607080939
:102F70000000000000000000000000000000000051
:102F8000000000000000000000000000000001023E
:102F900003040102030406070809020406080000EE
:0400000508000131BD
:00000001FF
