:020000040800F2
:100000007807002059100008210300082303000886
:10001000270300082B0300082F030008000000003E
:100020000000000000000000000000003303000892
:1000300035030008000000003703000839030008FA
:100040007310000873100008731000087310000884
:10005000731000087310000873100008350E0008B4
:100060007310000873100008731000087310000864
:100070007310000873100008731000087310000854
:100080007310000873100008731000087310000844
:100090007310000873100008731000087310000834
:1000A0007310000873100008731000087310000824
:1000B0007310000873100008731000087310000814
:1000C0007310000873100008731000087310000804
:1000D00073100008CF0F0008731000087310000899
:1000E00073100008731000087310000873100008E4
:1000F00073100008731000087310000873100008D4
:1001000073100008731000087310000873100008C3
:1001100073100008731000087310000873100008B3
:1001200073100008731000087310000873100008A3
:1001300000F002F800F04AF80AA090E8000C8244AF
:100140008344AAF10107DA4501D100F03FF8AFF28C
:10015000090EBAE80F0013F0010F18BFFB1A43F0A5
:10016000010318476031000080310000103A24BFBD
:1001700078C878C1FAD8520724BF30C830C144BF0C
:1001800004680C607047000000230024002500264E
:10019000103A28BF78C1FBD8520728BF30C148BFEA
:1001A0000B607047662903F04180642901F00286E4
:1001B000002070471FB502F011F904000020002153
:1001C00002F062FEE0601FBD10B510BD02F01EFA25
:1001D0001146FFF7EFFF00F009F802F03CFA03B414
:1001E000FFF7F2FF03BC00F097FE000000244FF47D
:1001F000A06001F0D5FC00F025FE4FF4E13000F0E6
:100200009AFE00F08BF900F09FFB00F014FD012135
:10021000082000F075FC1B21092000F071FC092169
:100220000A2000F06DFCFF210B2000F069FCE221A8
:100230000C2000F065FC0420304908705CE080214F
:10024000072000F05DFC002000F080FC2C490870C5
:1002500000202C4908703CE000202B4908702DE05C
:1002600028480178002000F027FD27480178012068
:1002700000F022FD2248007802281AD1322000F036
:100280001EFE00F0F5FC214908600846006802F0F7
:1002900057FF05460E461C480078184A1278194B3D
:1002A0001B7802FB0300411C2A46334618A001F0CC
:1002B00075FD15480078401C1349087012480078F5
:1002C0000E4909788842CBDB0E480078401C0D4966
:1002D00008700C480078094909788842BCDB601C2A
:1002E00084B20A2C08D10D48006808B9012000E04A
:1002F00000200A4908600024A1E700000400002053
:100300000000002002000020030000200800002060
:10031000256409256C660D0A00000000A001214239
:10032000704700BFFEE700BFFEE700BFFEE700BF6B
:10033000FEE7704770477047704700000CB500201B
:10034000019000906C48006840F480306A49086071
:1003500000BF6948006800F4003000900198401C1C
:100360000190009818B90198B0F5A06FF1D16248DA
:10037000006800F4003010B10120009001E000207E
:1003800000900098012843D15C48006840F01000BC
:100390005A4908600846006820F0030008600846D3
:1003A000006840F0020008605348406852494860C5
:1003B0000846406848600846406840F480604860ED
:1003C0000846406820F47C1048600846406840F4C5
:1003D000E81048600846006840F08070086000BF80
:1003E0004548006800F000700028F9D04248406895
:1003F00020F00300404948600846406840F0020091
:10040000486000BF3C48406800F00C000828F9D163
:100410000CBD10B5FFF792FF10BD10B5364800684F
:1004200040F00100344908600846406834490840FB
:100430003149486008460068324908402E49086042
:100440000846006820F4802008600846406820F4D0
:10045000FE0048604FF41F008860FFF7DAFF4FF09E
:1004600000602949086010BD10B50021002000225D
:10047000214B5B6803F00C0121B1042906D0082947
:1004800028D107E0214B224C236027E01F4B204C52
:10049000236023E0184B5B6803F47010164B5B6815
:1004A00003F48032022303EB904022B9194B4343FB
:1004B000174C23600DE0104B5B6803F4003323B14D
:1004C000144B4343124C236003E0104B4343104C46
:1004D000236003E00D4B0E4C236000BF00BF064BB2
:1004E0005B68C3F303130C4CE15C094B1B68CB4006
:1004F000074C236010BD00000010024000200240A5
:100500000000FFF8FFFFF6FE08ED00E000127A00A1
:100510000C00002000093D001000002008B501215A
:10052000242001F0D5F84FF48070ADF800001020C1
:100530008DF8030003208DF8020069462B4800F077
:100540000BFE4FF48071294800F0B3FE0420ADF893
:1005500000006946264800F0FFFD0421244800F011
:10056000A8FE0121182001F0B3F842F20500ADF811
:10057000000010208DF8030003208DF8020069466A
:100580001C4800F0E9FD4FF400511A4800F091FEBC
:100590000121184800F08DFE0421164800F089FE64
:1005A0004FF48160ADF8000010208DF803000320A7
:1005B0008DF8020069460F4800F0CEFD4FF48061CF
:1005C0000C4800F076FE08210A4800F072FE4FF455
:1005D0000040ADF800006946074800F0BDFD4FF44B
:1005E0000041054800F065FE08BD0000000801401C
:1005F0000014014000100140000C014010B5CB4830
:10060000406820F47040C94948600846406840F49A
:10061000405048600020C6490860C649C1F8AC0196
:10062000042000F028FC0120C1490860C149C1F83C
:10063000AC01042000F01FFC10BD70B5054600247D
:10064000BA48406820F47040B8494860084640689D
:1006500040F4004048600020B5490860022000F0E6
:100660000AFC002618E00020B1490860022000F0D2
:1006700002FC0120AF49C1F8B0016006040EAC488D
:10068000843800682043C4B20020C1F8B0010220C1
:1006900000F0F1FB701CC6B2082EE4DBA3484068F2
:1006A00020F47040A14948600846406840F440503A
:1006B00048609F48001F056001209E49C1F8B001B5
:1006C000022000F0D8FB002099490860204670BD48
:1006D00070B504469548406820F4704093494860DE
:1006E0000846406840F44050486000209049086047
:1006F000022000F0C0FB002517E0E0098C49091F2B
:1007000008606006040E022000F0B5FB0120894954
:10071000C1F8B001022000F0AEFB0020844908605F
:10072000022000F0A8FB681CC5B2082DE5DB7F485D
:10073000406820F470407D4948600846406840F4B5
:100740000040486001207A4908607A48D0F82C01BE
:1007500028B17948007840F00200774908700220FB
:1007600000F089FB00207249086070BD10B56F4829
:10077000406820F470406D4948600846406840F485
:100780004050486000206C49087001206849091FEA
:1007900008606849C1F8B001042000F06CFB00203B
:1007A0006349091F0860042000F065FB00206149CF
:1007B000C1F8B00110BD10B5FFF7D8FF9020FFF7CA
:1007C00087FF5D48007800F0020010B90A20FFF7AB
:1007D0007FFF5948007800F0020020B9FFF7C6FFFC
:1007E0009120FFF775FF5448007800F0020018B917
:1007F0000020FFF722FF0446214650A001F0CEFA68
:10080000FFF7FCFE4C48007800F0020028B14A488F
:10081000007840F001004849087010BD08B501217A
:10082000102000F055FF4FF4C050ADF8000010202C
:100830008DF8030003208DF8020069463B4800F064
:100840008BFC01203A4908603A49C1F8AC0108BD67
:1008500010B500243548406820F4704033494860A2
:100860000846406840F40040486001203049091FB4
:10087000086000F000FB01202E49C1F8B00100F033
:10088000FAFA07E0601CC4B2FA2C03DDFFF7B6FEEB
:10089000012010BD2648843800680028F2D1244980
:1008A000086000BFF5E710B50020214908601F4827
:1008B000406820F470401D4948600846406840F494
:1008C0004050486000201B49C1F8AC01022000F0F4
:1008D000D2FA012016490860022000F0CCFA00206C
:1008E0001449C1F8B00110BD10B5002010490860CE
:1008F0000E48406820F470400C4948600846406843
:1009000040F44050486001200A49C1F8AC0102207F
:1009100000F0B1FA012006490860022000F0ABFAAD
:1009200000200449C1F8B00110BD000000100140D2
:10093000B00122420000224223000020636F6E6655
:10094000696725640D0A000010B5FFF767FF10BD49
:1009500070B504460026FFF709FF2546E11704EBB2
:1009600011610912A02202EB4101C8B2FFF7B0FEEB
:10097000FFF76EFFE11704EB11610912A4EB0121EF
:10098000C8B2FFF7A5FEFFF763FFFFF7EFFEA12058
:10099000FFF79EFEFFF75CFF0020FFF74EFE0646C6
:1009A000FFF72CFE304670BD70B504460E46FFF7CB
:1009B000DDFE2546E11704EB11610912A02202EBCE
:1009C0004101C8B2FFF784FEFFF742FFE11704EBD5
:1009D00011610912A4EB0121C8B2FFF779FEFFF7FC
:1009E00037FF3046FFF774FEFFF732FFFFF706FED2
:1009F0000A2000F064FA70BD2DE9F04105460E466C
:100A00001746002409E0E20026FA02F2D1B22A19C0
:100A100090B2FFF7C9FF601CC4B2BC42F3DBBDE873
:100A2000F0812DE9F04107460C460026002509E03B
:100A300036023919491B491E88B2FFF789FF06445F
:100A4000681CC5B2A542F3DB3046BDE8F08110B5A5
:100A5000FF20FFF77DFF0446552C01D1002010BD7B
:100A60005521FF20FFF7A0FFFF20FFF771FF04468D
:100A7000552C01D10020F2E70120F0E770B50646C1
:100A80000C46154608E03046721C96B2FFF760FF30
:100A900004F8010B681E85B2002DF4D170BD70B54D
:100AA00005460C46164606E021782846FFF77CFFEF
:100AB000681C85B2641C301EA6F101018EB2F3D110
:100AC00070BD000010B5FFF751FE9020FFF700FE4B
:100AD000BA48007800F0020018B9BF20FFF7F8FD0F
:100AE00005E0B648007840F00100B4490870FFF70F
:100AF00085FD002401E0601CC4B2FE2CFBDB10BDB0
:100B000070B505460C46FFF731FE9020FFF7E0FD7B
:100B1000AA48007800F0020010B92846FFF7D8FD77
:100B2000A648007800F0020010B92046FFF7D0FD7B
:100B3000FFF764FDA148007800F0020028B19F484B
:100B4000007840F001009D49087070BD70B5044602
:100B5000FFF70CFE9020FFF7BBFD9848007800F0EF
:100B6000020010B92046FFF7B3FD9448007800F06A
:100B7000020020B9FFF7FAFD9120FFF7A9FD8F4889
:100B8000007800F0020018B90120FFF756FD054675
:100B9000FFF734FD8948007800F0020028B187484B
:100BA000007840F0010085490870284670BD10B5F6
:100BB000FFF7DCFD9020FFF78BFD8048007800F008
:100BC000020010B90120FFF783FD7C48007800F097
:100BD000020020B9FFF7CAFD9120FFF779FD7748A1
:100BE000007800F0020020B90020FFF726FD7449CC
:100BF00008707248007800F0020020B90020FFF76A
:100C00001CFD704908706D48007800F0020020B9A2
:100C10000120FFF712FD6C490870FFF7EFFC6748F1
:100C2000007800F0020028B16448007840F001002C
:100C30006249087010BD08B50121102000F048FD80
:100C40000220ADF8000048208DF8030069465F4897
:100C500000F082FAFFF736FF5848007800F00100F4
:100C600010B100205549087059485A49086008BD1C
:100C70002DE9F84FFFF79BFF514890F8009051483D
:100C800090F800A0504890F800B04FEA094040EAC0
:100C90000A2040EA0B0450480460204602F03BF969
:100CA00007464E4A4E4B02F04DF9054602F002F956
:100CB00000900098BDE8F88F70B505460C46002DF1
:100CC0003ED174B90821414800F0F5FA4FF4806133
:100CD0003E4800F0F0FA4FF40041424800F0EBFAD1
:100CE0006AE0012C0CD10821384800F0E4FAA10296
:100CF000364800F0E0FAE1033A4800F0DAFA5BE047
:100D0000022C0CD10821314800F0D5FA61022F489D
:100D100000F0CFFAA103334800F0CDFA4CE0032CE9
:100D20004AD10821294800F0C6FA4FF480612748CB
:100D300000F0BFFA4FF400412A4800F0BAFA3BE055
:100D40006CB94FF40051214800F0B5FA01211F4859
:100D500000F0B1FA04211D4800F0ADFA2CE0012C9E
:100D60000CD16103194800F0A6FA0121174800F0E0
:100D7000A2FA0421154800F09CFA1DE0022C0CD1C7
:100D80002103124800F097FA0121104800F091FA6F
:100D900004210E4800F08FFA0EE0032C0CD14FF422
:100DA00000510A4800F087FA0121084800F081FA52
:100DB0000421064800F07DFA70BD000023000020E9
:100DC000200000202100002022000020001001400F
:100DD000241209412C0000202400002017E532973E
:100DE000CCCCD83E000C01400EB50121084600F0E5
:100DF0006FFC0121022000F0C5FA022001900020C2
:100E00008DF808000C208DF8090001208DF80A00EB
:100E100001A800F041FF07208DF8000002208DF8A6
:100E200001008DF8020001208DF80300684600F0F3
:100E3000BCFE0EBD10B5012000F01DF8012000F031
:100E4000A2FF10BD10B56FF0040000F0F8FE2E48B0
:100E500000682E49B0FBF1F02D4908700846007873
:100E600000EB4001C1EBC0104FF6FF7101EAC0007A
:100E70002849088010BD0146254A12784A434FF0A0
:100E8000E0235A6100229A611A46126942F0010277
:100E90001A6100BF4FF0E022106900F001021AB1A0
:100EA00000F48032002AF5D04FF0E022126922F0DF
:100EB00001024FF0E0231A6100229A617047014657
:100EC000144A12884A434FF0E0235A6100229A6183
:100ED0001A46126942F001021A6100BF4FF0E02287
:100EE000106900F001021AB100F48032002AF5D036
:100EF0004FF0E022126922F001024FF0E0231A6164
:100F000000229A61704700000C00002000127A0055
:100F10003000002032000020014600BF704700BFB3
:100F2000494A128802F04002002AF9D0C2B2464B68
:100F30001B1D1A80704710B586B00446012144F28B
:100F4000040000F0C5FB4FF40070ADF8140003205E
:100F50008DF8160018208DF8170005A93B4800F001
:100F6000FBF84FF48060ADF8140004208DF81700F2
:100F700005A9364800F0F0F825208DF80000032080
:100F80008DF801008DF8020001208DF803006846FD
:100F900000F00BFE01940020ADF80800ADF80A0047
:100FA000ADF80C00ADF810000C20ADF80E0001A952
:100FB000254800F034FC012240F22551224800F07F
:100FC000C6FC0121204800F0B6FC06B010BD10B5EB
:100FD00040F225511C4800F09FFD10B31A4800F064
:100FE0001BFDC4B21A48008800F40040C8B9184874
:100FF000008800F4804060B10A2C03D0002014491E
:10100000088020E01248008840F400401049088021
:1010100019E00D2C06D10E48008840F480400C49A0
:10102000088010E00A480088C0F30D0009490C54FC
:1010300007480088401C0649088008460088C728E1
:1010400001DD0020088010BD00380140000801408B
:101050003800002050000020094880470948004718
:10106000FEE7FEE7FEE7FEE7FEE7FEE7FEE7FEE758
:10107000FEE7FEE704480549054A064B70470000B5
:101080001B040008310100087801002078070020C7
:10109000780300207803002010B50446CC48844231
:1010A00008D10121042000F02DFB0021042000F0D4
:1010B00029FB46E0C748844208D10121082000F0FE
:1010C00021FB0021082000F01DFB3AE0C2488442C9
:1010D00008D10121102000F015FB0021102000F0A4
:1010E00011FB2EE0BD48844208D10121202000F0F0
:1010F00009FB0021202000F005FB22E0B8488442D3
:1011000008D10121402000F0FDFA0021402000F02C
:10111000F9FA16E0B348844208D10121802000F09A
:10112000F1FA0021802000F0EDFA0AE0AE48844296
:1011300007D10121801500F0E5FA0021A01500F08B
:10114000E1FA10BD10B50121084600F0DBFA0021DC
:10115000012000F0D7FA10BD2DE9F041024600252C
:101160000026002000230024002791F803C00CF083
:101170000F0591F803C00CF0100CBCF1000F03D068
:1011800091F802C04CEA050591F800C0BCF1000FCF
:1011900031D0146800202BE04FF0010C0CFA00F362
:1011A000B1F800C00CEA03069E4220D183004FF044
:1011B0000F0C0CFA03F7BC4305FA03FC4CEA0404D9
:1011C00091F803C0BCF1280F06D14FF0010C0CFAC6
:1011D00000FCC2F814C00AE091F803C0BCF1480F4B
:1011E00005D14FF0010C0CFA00FCC2F810C0401CF5
:1011F0000828D1D31460B1F800C0BCF1FF0F34DD72
:10120000546800202EE000F1080C4FF0010808FAA5
:101210000CF3B1F800C00CEA03069E4221D1830012
:101220004FF00F0C0CFA03F7BC4305FA03FC4CEA31
:10123000040491F803C0BCF1280F05D100F1080C9B
:1012400008FA0CF8C2F8148091F803C0BCF1480FFA
:1012500007D100F1080C4FF0010808FA0CF8C2F8A9
:101260001080401C0828CED35460BDE8F0814FF6B2
:10127000FF710180022181700421C1707047024614
:10128000002093680B400BB1012000E00020704764
:101290000146886880B2704702460020D3680B4040
:1012A0000BB1012000E0002070470146C86880B201
:1012B000704701617047416170470AB1016100E008
:1012C00041617047C16070474FF480320A438261C8
:1012D0008161826182698269704702460020434BC6
:1012E00018684FF68073184040EA021008433F4BDD
:1012F000186070473E49C8617047F0B50A46002340
:1013000000240021002500F00046B6F1004F02D174
:10131000364EF16901E0354E7168C0F3034583B282
:1013200000F44016B6F5401F08D121F070612F4E31
:10133000766826F070662D4F7E6012E000F480160D
:10134000B6F5801F06D1032606FA05F4A14341F045
:10135000706106E0460D360103FA06F6B14341F02E
:10136000706122B1460D360103FA06F6314300F0F2
:101370000046B6F1004F02D11C4EF16101E01B4E58
:101380007160F0BD30B500228B071C0F0F2303FAEC
:1013900004F2164B08338C1053F824309343134C4B
:1013A00008348D1044F8253023468C1053F824302F
:1013B0008C07240F00FA04F423430C4C08348D10DE
:1013C00044F8253030BD0A49DC3108607047000020
:1013D00000080140000C01400010014000140140D1
:1013E00000180140001C01400020014000000140A5
:1013F00000002042DF48006840F00100DD4908603D
:1014000008464068DC490840DA49486008460068F8
:10141000DA490840D74908600846006820F480206F
:1014200008600846406820F4FE0048604FF41F0042
:1014300088607047CF49096821F48031CD4A116036
:101440001146096821F480211160B0F5803F03D076
:10145000B0F5802F0ED106E0C649096841F480310D
:10146000C44A116007E0C349096841F4A021C14A98
:10147000116000E000BF00BF704710B501460022B8
:10148000002300204A11012A02D1BA4C236806E049
:10149000022A02D1B74C236A01E0B64C636A01F01C
:1014A0001F02012494401C400CB1012000E00020E8
:1014B00010BD38B5002000900024002500BF312069
:1014C000FFF7DBFF05460098401C00900098B0F540
:1014D000A06F01D0002DF2D03120FFF7CEFF08B170
:1014E000012400E00024204638BD01460020A14A26
:1014F000106820F0F80040EAC10010607047A04971
:1015000008607047024600209A4B586820F47C100F
:1015100042EA01031843974B5860704798490866A0
:10152000704701460020934A506820F003000843AA
:10153000506070478F48406800F00C0070470146CB
:1015400000208C4A506820F0F0000843506070473B
:1015500001460020874A506820F4E060084350604C
:10156000704701460020834A506820F4605040EAEA
:10157000C1005060704729B17E4A527A02437D4BC8
:101580005A7204E07B4A527A82437A4B5A7270470D
:101590007B49D8310860704701460020754A506881
:1015A00020F440400843506070470021714A2032C7
:1015B0001170704A82F82010012802D004280AD144
:1015C00004E001216B4A2032117005E00521694ACF
:1015D0002032117000E000BF00BF70476949086009
:1015E00070476449096A0143624A1162704765495C
:1015F00044390860704730B50021002200240023E0
:101600005C4D6D6805F00C0121B1042905D0082955
:1016100023D105E05C4D056022E05B4D05601FE0D5
:10162000544D6D6805F47012524D6D6805F48034A8
:10163000022505EB92421CB9544D554305600BE061
:101640004C4D6D6805F400351DB1504D5543056096
:1016500002E04D4D5543056002E04B4D056000BF73
:1016600000BF444D6D6805F0F0010909484D6B5C01
:101670000568DD4045603F4D6D6805F4E061090A8D
:10168000434D6B5C4568DD4085603A4D6D6805F4FF
:101690006051C90A3E4D6B5C4568DD40C560354D03
:1016A0006D6805F44041890B3A4D6B5CC568B5FB2C
:1016B000F3F5056130BD29B12E4A526902432D4B25
:1016C0005A6104E02B4A526982432A4B5A6170479F
:1016D00029B1284A92690243264B9A6104E0254ABF
:1016E00092698243234B9A61704729B1214AD2699A
:1016F0000243204BDA6104E01E4AD26982431D4B4B
:10170000DA61704729B11B4AD2680243194BDA608B
:1017100004E0184AD2688243164BDA60704729B158
:10172000144A12690243134B1A6104E0114A126908
:101730008243104B1A617047124940390860704764
:101740000F49C86470470B49C87170470948406A1F
:1017500040F0807007494862704701460020054A02
:1017600092680A400AB1012000E000207047014958
:1017700088727047001002400000FFF8FFFFF6FE7D
:10178000000042428004424200127A0000093D00FB
:101790003A0000204A00002010B50446FB4884426D
:1017A00009D101218803FFF7ADFF00214FF48040EC
:1017B000FFF7A8FF32E0F648844209D1012148042E
:1017C000FFF7ADFF00214FF40030FFF7A8FF25E041
:1017D000F048844209D101218804FFF7A0FF0021CD
:1017E0004FF48020FFF79BFF18E0EB48844209D1BB
:1017F0000121C804FFF793FF00214FF40020FFF7F9
:101800008EFF0BE0E548844208D101210805FFF76F
:1018100086FF00214FF48010FFF781FF10BD2DE9F6
:10182000F04786B005460E460024A24600BFA146FA
:101830000027B08900B100BF2F462C8A4CF6FF70FC
:101840000440F08804432C82AC894EF6F310044027
:10185000B08831890843718908430443AC81AC8A5C
:101860004FF6FF400440B0890443AC8201A8FFF763
:10187000C2FEC648874202D1DDF810A001E0DDF8C3
:101880000CA0A88900F4004040B10AEBCA0000EBAC
:101890000A1031684900B0FBF1F807E00AEBCA0012
:1018A00000EB0A1031688900B0FBF1F86420B8FB46
:1018B000F0F004012009642101FB1089A88900F4DB
:1018C000004040B1322000EBC900B0FBF1F000F065
:1018D0000700044308E0322000EB09106421B0FB4C
:1018E000F1F000F00F0004432C8106B0BDE8F08752
:1018F0004FF41651016000218180C18001810C21CB
:10190000418100218181704710B502460020108A74
:101910004FF2FF0318400B884C8823438C882343E5
:10192000CC8823431843108210BD002101804180E0
:101930008180C180704721B1828942F40052828146
:1019400004E082894DF6FF731A4082817047F0B53A
:101950000346002400260025002040F66A17B942FD
:1019600000D100BF1846C1F3421401F01F06012741
:1019700007FA06F5012C01D10C3004E0022C01D14C
:10198000103000E014301AB107682F43076002E0FE
:101990000768AF430760F0BD1AB1838A0B438382A7
:1019A00002E0838A8B4383827047028A4FF6F0738A
:1019B0001A400282028A0A430282704782894FF2E9
:1019C000FF731A40828182890A438281704721B164
:1019D000828942F00202828104E082894FF6FD731F
:1019E0001A4082817047028A4FF6DF731A400282E2
:1019F000028A0A430282704721B1028A42F480427D
:101A0000028204E0028A4BF6FF731A40028270479A
:101A1000C1F308028280704701468888C0F308003D
:101A20007047818941F0010181817047028BD2B2F8
:101A30000283028B42EA012202837047028B02F486
:101A40007F420283028B0A430283704721B1828A5C
:101A500042F02002828204E0828A4FF6DF731A404D
:101A60008282704721B1828A42F01002828204E0B1
:101A7000828A4FF6EF731A408282704721B1828AC0
:101A800042F00802828204E0828A4FF6F7731A401D
:101A90008282704721B1828942F40042828103E050
:101AA0008289C2F30E028281704721B1828A42F498
:101AB0000062828204E0828A4FF2FF731A408282BF
:101AC0007047828A4FF6FB731A408282828A0A43E9
:101AD0008282704721B1828A42F00202828204E04F
:101AE000828A4FF6FD731A408282704702460020B8
:101AF000B1F5007F00D100BF13880B400BB101206E
:101B000000E00020704701F40072B2F5007F00D1C0
:101B100000BFCA430280704770B50246002400230C
:101B20000025002040F66A16B14200D100BFC1F383
:101B3000421501F01F03012606FA03F3012D02D11D
:101B40009689334006E0022D02D1168A334001E027
:101B5000968A33400C12012606FA04F416883440A3
:101B600013B10CB1012000E0002070BD10B50022BF
:101B7000002340F66A14A14200D100BF0A120124DA
:101B80009440A3B2DC43048010BD00000038014043
:101B90000044004000480040004C0040005000401D
:101BA00031490143314A1160704770B5002100236B
:101BB0000F22C47804B32D4C246804F4E064C4F507
:101BC000E064210AC1F10403CA40447804FA03F135
:101BD0008478144021430901254C0678A1550478E6
:101BE00004F01F050124AC4005786D11AD0005F12E
:101BF000E025C5F8004109E0047804F01F05012440
:101C0000AC401C4D0678761145F8264070BD1A4A46
:101C10000A400243154B1B1F1A60704739B1134A23
:101C2000121D12680243114B1B1D1A6006E00F4A79
:101C3000121D126882430D4B1B1D1A607047042849
:101C400008D14FF0E021096941F004014FF0E02292
:101C5000116107E04FF0E021096921F004014FF024
:101C6000E0221161704700000000FA050CED00E071
:101C700000E400E080E100E080FFFF1F0020444915
:101C80000860091D0860091D0860091D08604148B9
:101C90003F4914310860704700213D498279002A8C
:101CA0003AD00A46126803689A430B461A600A1D26
:101CB000126803689A430B1D1A60027911440A687E
:101CC00003681A430A60324A0832126803689A436A
:101CD0002F4B08331A601A1D126803689A432C4B65
:101CE0000C331A604279102A0ED11A1F1268036849
:101CF0001A43274B08331A601A1D126803681A43E7
:101D0000234B0C331A600DE02149427911440A68D3
:101D100003681A430A6005E0027911440A680368FF
:101D20009A430A6070470021016001710C214171E2
:101D30000021817170471649103109680143144A26
:101D400010321160704701460020114A14321268A7
:101D50000A400AB1012000E0002070470C4914310C
:101D600008607047014600200022094B1B6803EA07
:101D70000102074B14331B680B4013B10AB1012059
:101D800000E00020704702491431086070470000ED
:101D900000040140FFFF0F00704700000FB404492A
:101DA00010B503AA029800F007FB10BC5DF814FB05
:101DB000340000202DE9F041064600241068752902
:101DC000314616A510D0AFF30080002802DA404259
:101DD00013A507E031688A0701D512A502E049077B
:101DE00004D511A5012401E0AFF3008000210A22EF
:101DF00006F1240709E0B0FBF2FCB0FBF2F302FBB2
:101E00001C00303078541846491C0028F3D1234672
:101E10002A463046BDE8F04100F068B800000000F6
:101E20002D0000002B000000200000002DE9F041F3
:101E30000F460546002028622846E968884770B3A7
:101E4000252805D0D5E901219047286A401CF2E7F2
:101E5000E9682846002688476C2804460AD0682C82
:101E600008D04C2C35D06A2C31D0742C31D07A2C3F
:101E70002FD016E0E968064628468847B042044657
:101E800008D16C2E23D04FF480662846E968884735
:101E9000044606E06C2E03D04FF4807601E01EE08D
:101EA0004026E4B1A4F14100192802D8203446F4B8
:101EB00000663A46214628462E60FEF773F960B167
:101EC000012808D0FF1D27F007070837B4E7802650
:101ED000DBE70026D9E73F1DAEE72046B2E7286AD8
:101EE000BDE8F08170477047704770472DE9F047B3
:101EF0000D4699469246044600F12408016888067A
:101F000004D5E06921F01001216000E00120A84221
:101F100001DD471B00E00027A1697A1902EB0900E7
:101F2000081AA0612078C00602D42046AFF30080D2
:101F3000002608E0D4E901211AF806009047206A3B
:101F4000401C761C20624E45F4DB2078C0060AD582
:101F50002046AFF3008006E0D4E90121302090470D
:101F6000206A401C2062381EA7F10107F4DC07E05C
:101F7000D4E9012118F805009047206A401C20622E
:101F8000281EA5F10105F3DC2046AFF30080207880
:101F9000000602D50220BDE8F0870120FBE770476C
:101FA0002DE9FF4F0C461E464FF0FF378BB0D2E9AC
:101FB0000001DDF860800A908A46C1F30A5505B930
:101FC0003D46002108464FF00000BAF1000F00F432
:101FD000400005DA00EB80004FF4400101EA5000B8
:101FE0004FEA9059B9F1010F00DDB9460A9850EA5D
:101FF0004A000ED044F61050A5F2FF3545432F1489
:10200000B8F1000F1ED07542291E1EDDC9F1000275
:102010001CE0B8F1010F4FF0000001D0302103E0C7
:10202000F24305E02154401CB042FBDB3046002265
:10203000002121540B99C1F80880C1E900200FB09C
:10204000BDE8F08FBD1B6D1CDEE74A4600DA694231
:1020500006A800F065FA06AB93E8070003AB83E837
:10206000070050460A9900F03FFB8DE80700A0F5F5
:1020700000501F3800900398002D09DD42F21F0127
:102080004A46084403A90390684600F09EFD08E014
:10209000A0F500504A461F3803A90390684600F097
:1020A000A8FD8DE807000004000C03D04FF0FF30BE
:1020B000410800E01046B8F1000F03D00022009262
:1020C00015461EE0751E05D400F08CF930326255BD
:1020D0006D1EF9D5B3460122084302D000227F1CB1
:1020E00004E02078302801D100227F1E002A0997C1
:1020F00086D01DE0112D07DA00F074F930326255F8
:102100006D1C50EA0102F5D1084302D00098C8B115
:102110000EE00021681E05E0235C625C63542254DB
:10212000401E491C8142F7DBAB46A81B401E0990AC
:10213000002004F80B000B98099AC0F80880C0E949
:10214000002B7CE711264FF0000859E72DE9F04FEE
:1021500088460446D21D22F0070191B0D1E9000162
:10216000CDE90A0100F07BFE02460B98C00F01D0BA
:102170002D2007E02068810701D52B2002E02021D7
:1021800001EAC000032A099001D0072A05DB0346B3
:102190004146204600F084F90BE12078800601D505
:1021A000E06900E00620B8F1650F814606D0B8F17D
:1021B000660F18D0B8F1670F70D131E00020B9F187
:1021C000110F009001DB112301E009F101030AAABC
:1021D00001A90CA8FFF7E4FEDDE90C70002609F167
:1021E0000105834647E001204B4600904FF0004731
:1021F0000AAA01A90CA8FFF7D3FEDDE90DB00C99DE
:102200005D46002610B909F101000D18B9EB050073
:1022100003D4C0F1FF3609F10105A5EB09002BE05D
:10222000B9F1010F01DA4FF001090020B9F1110FE6
:102230000090484601DD112300E003460AAA01A9E7
:102240000CA8FFF7ADFEDDE90C704D460026834675
:10225000207800070AD4AB4500DA5D4601A8012DBD
:1022600004DD411911F8011C302907D04F4502DA6D
:1022700017F1040F04DA012082460FE06D1EEEE72D
:10228000002F02DCED1B3E4403E0781CA84200DD79
:102290007D1CB81B00F1010A4FF0004720780007B1
:1022A00003D4AA4501DB4FF0FF3A0021B7F1004FFC
:1022B0000DF143088DF8431024D002202B23002F6A
:1022C00001DA7F422D230A21021EA0F1010000DC69
:1022D0005FB197FBF1FC97FBF1F201FB1C7C174609
:1022E0000CF1300C08F801CDEEE7A8F10100037005
:1022F0002188090501D5452100E06521A0F10108EB
:1023000000F8011C09980FA9A1EB0807FF1D00B1F7
:102310000120411901EBEA70A1693844081A401EF6
:10232000A0612078C00602D42046AFF3008009984F
:1023300028B1D4E901219047206A401C206220780E
:10234000C00622D52046AFF300801EE0002E04DB3D
:10235000B34502DD01A8805D00E03020D4E9012111
:102360009047206A401C2062761CAAF101005FEAB7
:10237000000A0AD100F032F8C0680168405CD4E974
:1023800001219047206A401C2062281EA5F101050A
:10239000DCDC07E0D4E9012118F8010B9047206A42
:1023A000401C2062381EA7F10107F3DC2046AFF382
:1023B0000080032011B043E6074B70B50D467B4407
:1023C00000F05BF80446284600F018F910B14FF011
:1023D000FF3070BD204670BD5DEBFFFF00487047C9
:1023E0003801002030B5B0F10A024FEA900E71F1C9
:1023F00000034EEA817EB0EB0E0061EB91014FEAE3
:10240000101E4EEA017E10EB0E0041EB11114FEA57
:10241000102E4EEA016E10EB0E0041EB11214FEA37
:10242000104E4EEA014E10EB0E0041EB11414018E8
:1024300041F100014FEAD00040EA41704FEAD1017A
:1024400010EB80054FEA810444EA907444EB0104E8
:102450006D1944EB0404521BA3414FF0000348BF25
:102460000A3200D530BD401C41F1000130BD0000F2
:1024700001694A1C02610878704700B58FB0CDE948
:1024800001310021059105497944CDE90310114638
:102490006846FFF7CBFC0FB000BD0000E5FFFFFF73
:1024A0002DE9F0411F46044603260168072A01F47E
:1024B000006004DB08B116A505E016A503E008B12D
:1024C00015A500E015A521F010002060A069C01E30
:1024D000A0610FB1401EA0612046AFF300804FB154
:1024E000D4E9012138469047206A401C2062C01C74
:1024F000206206E0206AFAE7D4E9012115F8010B11
:102500009047761EF8D22046AFF30080BDE8F081F8
:102510004E414E006E616E00494E4600696E660087
:102520002DE9F047814616468AB0334878440DC8F5
:102530008DE80D0030487844801C03AC0DC884E859
:102540000D0041F69B300844372190FBF1F290FBDF
:10255000F1F5A5F1800501FB12041B3C02D5644294
:10256000012000E00020DFF890A080460027FA4418
:10257000AAF1BE0A0DE0E00709D03246684607EB33
:1025800047010AEB810100F034FB8DE8070064107D
:102590007F1C002CEFD1184F7F44AC3F18E0E807B8
:1025A00014D007EB04100DF1180A90E80E008AE829
:1025B0000E00C068F04201D198190890324606A971
:1025C00003A800F016FB03AB83E807006D10641C42
:1025D000002DE4D132466946B8F1000F03A802D0BD
:1025E00000F0F3FA01E000F004FBC9E90001C9F8CA
:1025F00008200AB0BDE8F0877C0D0000007B00F0E9
:102600008000704700487047180100207546FFF7AA
:10261000F9FFAE4605006946534620F0070085469F
:1026200018B020B5FEF726FDBDE820404FF00006AB
:102630004FF000074FF000084FF0000B21F00701AA
:10264000AC46ACE8C009ACE8C009ACE8C009ACE8ED
:10265000C0098D46704710B50446AFF30080204690
:10266000BDE81040FDF7BBBD4FF0013C50F8042B16
:1026700051F8043B9A4221D1A2EB0C03934313EA95
:10268000CC1317D150F8042B51F8043B9A4215D1C2
:10269000A2EB0C03934313EACC130BD150F8042B99
:1026A00051F8043B9A4209D1A2EB0C03934313EA7D
:1026B000CC13DBD04FF00000704700BFD01A01BA36
:1026C000B1FA81F101F0180122FA01F0CB40C1F119
:1026D0002001DBB2C0B2C01A2CFA01F3D11A914327
:1026E00011EAC311E6D170475FEA400C08BF91F0D0
:1026F000000F4FEA8C234FEAC12243EA51514FEABF
:102700001C5018BF00F5F0404FEA300018BF41F0F0
:1027100000415FEA6C5C00F02980BCF1FF3F08BF1C
:1027200040F080407047130C06BF12044FF0100CAD
:102730004FF0000C130E04BF12020CF1080C130F23
:1027400004BF12010CF1040C930F04BF92000CF1B2
:10275000020CD30F04BF52000CF1010C11464FF0D4
:102760000002A0F11F00A0EB0C00704711F0004F19
:1027700008BF704731F000413FF4D5AF0B0C06BFE6
:1027800009044FF0100C4FF0000C0B0E04BF0902AF
:102790000CF1080C0B0F04BF09010CF1040C8B0F9A
:1027A00004BF89000CF1020CCB0F04BF49000CF1EF
:1027B000010CCCF12003A0EB0C0022FA03F302FA87
:1027C0000CF241EA030100F10100704720F07F4C58
:1027D00080EA030023F07F47ACEB070303F57C534B
:1027E00000F0004003F1FF032DE980494FEA154B4B
:1027F00009B44FEA144325EA0B4E24EA03480FF2CA
:10280000042606EB132749083E785FEA320203FBF1
:102810000667C7F5000707FB06F64FEA54374FEA8D
:10282000D64606F1020607FB066CCCF1005C4FEAC7
:102830001C472CEA074C07FB06F40CFB06F504EBDF
:1028400015464FEA961634BF00204FF000404FEA7D
:10285000D13706FB07FC4FEA1C4C0CFB0BF7D21BD5
:1028600003FB0CF761EB07010CFB0EF7B0EB074025
:1028700072EB17420CFB08F734BFA2EB0742B2EB36
:10288000074261EB17414FEA0C444FEA910706FB00
:1028900007FC4FEA1C4C0CFB0BF7B0EBC74072EB8C
:1028A000573203FB0CF734BFA2EBC742B2EBC7426F
:1028B00061EB57310CFB0EF7B0EBC70072EB5772B0
:1028C0000CFB08F734BFA2EBC702B2EBC70261EB07
:1028D0005771039F4FEA816141EA921104EBCC04E6
:1028E0004FEAD1374FEA826206FB07FC42EA9012B8
:1028F0004FEA80604FEA1C4C0CFB0BF7D21B03FB2A
:102900000CF761EB07010CFB0EF7B0EB074072EB25
:1029100017420CFB08F734BFA2EB0742B2EB0742A9
:1029200061EB17414FEA8C554FEA910704EB9C2469
:1029300006FB07FC4FEA1C4C0CFB0BF7B0EBC74047
:1029400072EB573203FB0CF734BFA2EBC742B2EB7A
:10295000C74261EB57310CFB0EF7B0EBC70072EBCF
:1029600057720CFB08F734BFA2EBC702B2EBC702E9
:1029700061EB577115EB4C254FEA816141EA9211E9
:102980004FEA82624FEAD13742EA901206FB07FC17
:1029900044F100044FEA80604FEA1C4C0CFB0BF73B
:1029A000D21B03FB0CF761EB07010CFB0EF7B0EB3E
:1029B000074072EB17420CFB08F734BFA2EB07424B
:1029C000B2EB074261EB174115EB1C154FEA813161
:1029D00041EA92414FEA823242EA90424FEA803025
:1029E0004FEA0C7644F1000448EA03434EEA0B48F0
:1029F0004FF0000EB2EB080C71EB030724BF6246E8
:102A000039464EEB0E0E4FF0000B00185241494173
:102A10004BEB0B0BB2EB080C71EB03077BF1000BDC
:102A200024BF624639464EEB0E0E4FF0000B0018E5
:102A3000524149414BEB0B0BB2EB080C71EB030716
:102A40007BF1000B24BF624639464EEB0E0E51EA75
:102A5000020718BF46F0010616EB0E7655F100028C
:102A600054F1000103D5BDE88901BDE80088BDE847
:102A70008901BDE80048B619524141EB0101A3F1BB
:102A80000103704780807F7E7D7C7B7A79787776C2
:102A900076757473727171706F6E6E6D6C6C6B6A3B
:102AA0006A696868676666656464636362616160D9
:102AB000605F5F5E5E5D5D5C5C5B5B5A5A59595856
:102AC00058575756565555555454535352525251C0
:102AD000515050504F4F4F4E4E4D4D4D4C4C4C4B16
:102AE0004B4B4A4A4A49494948484847474747465D
:102AF0004646454545444444444343434342424299
:102B000042414141002B26D4770021D01CB54FEA29
:102B1000370703B44FF010004FF010014FF00000E2
:102B20000FBCBDE810400BF1010BBBF1010F08BF5A
:102B30005FEA170722BF12F1010211F101014FF004
:102B4000004143F1000300F0004043EA00007047F9
:102B5000F9D35708DAE746EA064613F1400F4FEA81
:102B600016461FDD13F1200FDFBF16430A46002172
:102B700020335B42C8D0C3F1200746EA064602FA7A
:102B800007F74FEA164646EA0706C3F1200722FA7E
:102B900003F201FA07F721FA03F14FF0000342EACA
:102BA0000702B1E746EA020646EA06464FEA16463B
:102BB00046EA0106BCBF46EA0646360C4FF0000363
:102BC0004FF000024FF000019EE72DE9C048934608
:102BD00030B491E8380007C831EA400C48BF34EA05
:102BE000430C03D5FFF7F2FDFFF78CFFF0BCBDE807
:102BF00000882DE9C048934630B491E8380007C8F2
:102C000010F0804F08BF13F0804F03D100F005F89B
:102C1000FFF778FFF0BCBDE8008820F07F4780EA2E
:102C2000030023F07F4C07EB0C03A3F57C5300F06B
:102C30000040A3F1FE0392F0000F00F0B38095F086
:102C4000000F00F077802DE901494FEA11404FEA6B
:102C5000144621EA004800FB06FC24EA064708FB6C
:102C600006F607FB08F800FB07F718EB06484CEBE5
:102C7000164C4FEA124B18EB07484FEA15464CEB3F
:102C8000174022EA0B4E0BFB06FC25EA06470EFB1B
:102C900006F607FB0EFE0BFB07F71EEB064E4CEB92
:102CA000164C4FF000061EEB074E4CEB174B18EB83
:102CB0000B0840F1000018EB0E0B58EB000840F138
:102CC00000008F1A4FF000013CBFC943661B14BFC0
:102CD000B5EB040C00213CBFC943F61B4FEA174477
:102CE0004EEA8E0E27EA04454FEA1C4704FB0762B2
:102CF0002CEA074C05FB07F70CFB05F604FB0CFC64
:102D000016EB074642EB174216EB0C4642EB1C4211
:102D10001BEB060658EB0202414146EA9E0601D52E
:102D2000BDE80189B619524141EB0101A3F101034C
:102D3000BDE801894FEA14454FEA114724EA0546E8
:102D400021EA074C05FB07F406FB07F70CFB06F12D
:102D500005FB0CFC11EB074144EB17444FEA12470B
:102D600011EB0C4144EB1C4422EA074C05FB07F233
:102D700006FB07F70CFB06F605FB0CFC16EB0746FB
:102D800042EB174216EB0C4642EB1C456A1854F115
:102D9000000148BF7047B619524141EB0101A3F150
:102DA0000103704795F0000F37D04FEA11424FEA08
:102DB000144721EA024624EA074C02FB07F106FB0E
:102DC00007F70CFB06F402FB0CFC14EB074441EB89
:102DD00017414FEA154714EB0C4441EB1C4125EA1F
:102DE000074C02FB07F506FB07F70CFB06F602FB98
:102DF0000CFC16EB074645EB174516EB0C4645EB6E
:102E00001C42121951F1000148BF7047B6195241D6
:102E100041EB0101A3F1010370474FEA14454FEA6A
:102E2000114724EA054621EA074C05FB07F106FB9A
:102E300007F70CFB06F24FF0000605FB0CFC12EB4B
:102E4000074241EB174112EB0C4251EB1C4148BFCA
:102E50007047921841EB0101A3F10103704749004B
:102E600050EAC12018BF04204A0D18BF40F00100ED
:102E700040F2FF72B2EB515F08BF40F00200012840
:102E800008BF05207047000010B500290AD0087857
:102E9000002807D005487844FFF7E6FB002801D05A
:102EA000002010BD0248784410BD00004E04000010
:102EB0004604000021F00042A2F16052B2F5801FEA
:102EC00001F0004328BFD2F17F6C0BD95FEA001CF0
:102ED00043EAC20242EB507018BF704728BF20F08F
:102EE00001007047B2F5801FBCBF184670474FEA1B
:102EF000410C1CF5001F02D2084600F092B970B5D3
:102F000000F0CAF800000089FFF7F6BF4FF000405C
:102F1000A0F58000704710F0004248BF4042B0FA70
:102F200080F310FA03F10AD0C3F11D0303F58063A7
:102F30004FEA415002EB035202EBD12170474FF0B0
:102F400000007047DFF848C170B51CEA111E1EBFB3
:102F50001CEA13159EEA0C0F95EA0C0F00F06F8027
:102F600081EA030423EA4C134EEAD47E21EA4C1191
:102F700041F4801143F48013AE44A1FB024CA0FB4A
:102F80000365AEF17F7E361955EB0C05A1FB034CB2
:102F90004CF10003A0FB021C16EB0C06654153F13B
:102FA0000003094218BF46F0010613F4007F0BD15D
:102FB0004FEA03314FEA0530340341EA155140EA44
:102FC00016506FF003020AE04FEAC3214FEAC52012
:102FD000F40241EA555140EA56506FF0020202EB0A
:102FE0002E4201EB025585EACE710AD05FEA440C0D
:102FF00018BF24F0004450F1000041F1000120EA24
:10300000D47040F2FE7C624500D270BDA84214BF6D
:103010004FF080444FF04044002E08BF0024BEF122
:10302000806FA8BFA1F1C041BDE8704080F28280EE
:103030004FF0000001F1C04101F0004170479EEAED
:103040000C0F0CEA131518BF95EA0C0F06D04FF0C1
:10305000000081EA030E0EF0004170BD00F01CF884
:103060008900013E00F007B800F009B84FEA430CB0
:103070005FEA5C5C08D081EA030100F05BB84FEACC
:10308000410C5FEA5C5CF6D14FF0000001497047EB
:103090000000FF070000F87F0EF1020E2EF0030E75
:1030A0005EF8046B364205D4012A43EB030515F59F
:1030B000001F12D8012841EB010C1CF5001F0CD891
:1030C0000ED14FEAD17C15F5001F0CEB4C0C0CF126
:1030D000020C08BF4CEBD37C04E04FF0080C01E07D
:1030E0004FEAD37C0CEB4C0526FA05F606F00706F2
:1030F000B6F1040C06D20EEB860CBDE870404CF025
:10310000010C6047DFE80CF0090B02024FF00041B0
:103110004FF00000A1F5002170BD194610460128AE
:1031200051EB010418BFD4F5001484BF002001F056
:10313000004170BD0808A0F500114FEA3101704749
:1031400043004FEAD30C4FEA3C0C43401FBF4007FB
:103150000CF1605113F0FE4F70471CF0006F03D16B
:1031600000200CF0004170470CF0004343EA50701F
:1031700010B540EACC0000F00EF800BF000000924D
:103180004FEA0001FFF7D6BF4FF000414FF00000BB
:10319000A1F5002170470EF1020E2EF0030E5EF82D
:1031A000044B244204D44FEA4102B2F17F4F11D8BC
:1031B0004FEA4003B3F17F4F0CD80ED14FEAD07CD9
:1031C000B2F17F4F0CEB4C0C0CF1020C08BF4CEB36
:1031D000D17C04E04FF0080C01E04FEAD17C0CEB0D
:1031E0004C0324FA03F404F00704B4F1040C06D2EF
:1031F0000EEB840CBDE810404CF0010C6047DFE89A
:103200000CF0070802024FF00040A0F5800010BD4E
:103210000846420018BFD2F1807288BF00F000401B
:1032200010BDFF2141EAD050C0057047FEF78EBFA8
:1032300002400000000000A0000000000540000067
:10324000000000C8000000000C4000000000409C8E
:1032500000000000194000000020BCBE000000007B
:1032600034400000BFC91B8E00000004B5400000C0
:10327000504BCFD06607E2CF010000006C41000048
:103280003E8251AADFEEA73401000000D9420000BF
:10329000DCB5A0E23A301F97FFFFFFFFB445000006
:1032A000FD25A0C8E9A3C14FFFFFFFFFFF3F0000BE
:1032B0000000008000000000FF3F000000000080D0
:1032C0000000000000330008000000205000000053
:1032D0006C0100085033000850000020280700004F
:1032E000880100081C00000043000000F8FFFFFFF9
:1032F0000C0000000E0000000F0000002E00000077
:1033000000000000000000000000000000A24A04CD
:103310000000000000000000010203040607080985
:10332000000000000000000000000000000000009D
:10333000000000000000000000000000000001028A
:10334000030401020304060708090204060800003A
:0400000508000131BD
:00000001FF
